{
  "_format": "hh-sol-artifact-1",
  "contractName": "TokenVestingFactoryNaive",
  "sourceName": "contracts/TokenVestingFactoryNaive.sol",
  "abi": [
    {
      "inputs": [
        {
          "internalType": "address",
          "name": "token_",
          "type": "address"
        },
        {
          "internalType": "address",
          "name": "owner_",
          "type": "address"
        }
      ],
      "stateMutability": "nonpayable",
      "type": "constructor"
    },
    {
      "anonymous": false,
      "inputs": [
        {
          "indexed": true,
          "internalType": "address",
          "name": "previousOwner",
          "type": "address"
        },
        {
          "indexed": true,
          "internalType": "address",
          "name": "newOwner",
          "type": "address"
        }
      ],
      "name": "OwnershipTransferred",
      "type": "event"
    },
    {
      "anonymous": false,
      "inputs": [
        {
          "indexed": false,
          "internalType": "uint256",
          "name": "amount",
          "type": "uint256"
        }
      ],
      "name": "Released",
      "type": "event"
    },
    {
      "anonymous": false,
      "inputs": [],
      "name": "Revoked",
      "type": "event"
    },
    {
      "anonymous": false,
      "inputs": [
        {
          "indexed": true,
          "internalType": "bytes32",
          "name": "role",
          "type": "bytes32"
        },
        {
          "indexed": true,
          "internalType": "bytes32",
          "name": "previousAdminRole",
          "type": "bytes32"
        },
        {
          "indexed": true,
          "internalType": "bytes32",
          "name": "newAdminRole",
          "type": "bytes32"
        }
      ],
      "name": "RoleAdminChanged",
      "type": "event"
    },
    {
      "anonymous": false,
      "inputs": [
        {
          "indexed": true,
          "internalType": "bytes32",
          "name": "role",
          "type": "bytes32"
        },
        {
          "indexed": true,
          "internalType": "address",
          "name": "account",
          "type": "address"
        },
        {
          "indexed": true,
          "internalType": "address",
          "name": "sender",
          "type": "address"
        }
      ],
      "name": "RoleGranted",
      "type": "event"
    },
    {
      "anonymous": false,
      "inputs": [
        {
          "indexed": true,
          "internalType": "bytes32",
          "name": "role",
          "type": "bytes32"
        },
        {
          "indexed": true,
          "internalType": "address",
          "name": "account",
          "type": "address"
        },
        {
          "indexed": true,
          "internalType": "address",
          "name": "sender",
          "type": "address"
        }
      ],
      "name": "RoleRevoked",
      "type": "event"
    },
    {
      "stateMutability": "payable",
      "type": "fallback"
    },
    {
      "inputs": [],
      "name": "DEFAULT_ADMIN_ROLE",
      "outputs": [
        {
          "internalType": "bytes32",
          "name": "",
          "type": "bytes32"
        }
      ],
      "stateMutability": "view",
      "type": "function"
    },
    {
      "inputs": [],
      "name": "GRANTOR_ROLE",
      "outputs": [
        {
          "internalType": "bytes32",
          "name": "",
          "type": "bytes32"
        }
      ],
      "stateMutability": "view",
      "type": "function"
    },
    {
      "inputs": [
        {
          "internalType": "address",
          "name": "holder",
          "type": "address"
        }
      ],
      "name": "computeNextVestingScheduleIdForHolder",
      "outputs": [
        {
          "internalType": "bytes32",
          "name": "",
          "type": "bytes32"
        }
      ],
      "stateMutability": "view",
      "type": "function"
    },
    {
      "inputs": [
        {
          "internalType": "bytes32",
          "name": "vestingScheduleId",
          "type": "bytes32"
        }
      ],
      "name": "computeReleasableAmount",
      "outputs": [
        {
          "internalType": "uint256",
          "name": "",
          "type": "uint256"
        }
      ],
      "stateMutability": "view",
      "type": "function"
    },
    {
      "inputs": [
        {
          "internalType": "address",
          "name": "holder",
          "type": "address"
        },
        {
          "internalType": "uint256",
          "name": "index",
          "type": "uint256"
        }
      ],
      "name": "computeVestingScheduleIdForAddressAndIndex",
      "outputs": [
        {
          "internalType": "bytes32",
          "name": "",
          "type": "bytes32"
        }
      ],
      "stateMutability": "pure",
      "type": "function"
    },
    {
      "inputs": [
        {
          "internalType": "address",
          "name": "_beneficiary",
          "type": "address"
        },
        {
          "internalType": "uint256",
          "name": "_start",
          "type": "uint256"
        },
        {
          "internalType": "uint256",
          "name": "_cliff",
          "type": "uint256"
        },
        {
          "internalType": "uint256",
          "name": "_duration",
          "type": "uint256"
        },
        {
          "internalType": "uint256",
          "name": "_slicePeriodSeconds",
          "type": "uint256"
        },
        {
          "internalType": "bool",
          "name": "_revocable",
          "type": "bool"
        },
        {
          "internalType": "uint256",
          "name": "_amount",
          "type": "uint256"
        }
      ],
      "name": "createVestingSchedule",
      "outputs": [],
      "stateMutability": "nonpayable",
      "type": "function"
    },
    {
      "inputs": [
        {
          "internalType": "address",
          "name": "holder",
          "type": "address"
        }
      ],
      "name": "getLastVestingScheduleForHolder",
      "outputs": [
        {
          "components": [
            {
              "internalType": "bool",
              "name": "initialized",
              "type": "bool"
            },
            {
              "internalType": "address",
              "name": "beneficiary",
              "type": "address"
            },
            {
              "internalType": "uint256",
              "name": "cliff",
              "type": "uint256"
            },
            {
              "internalType": "uint256",
              "name": "start",
              "type": "uint256"
            },
            {
              "internalType": "uint256",
              "name": "duration",
              "type": "uint256"
            },
            {
              "internalType": "uint256",
              "name": "slicePeriodSeconds",
              "type": "uint256"
            },
            {
              "internalType": "bool",
              "name": "revocable",
              "type": "bool"
            },
            {
              "internalType": "uint256",
              "name": "amountTotal",
              "type": "uint256"
            },
            {
              "internalType": "uint256",
              "name": "released",
              "type": "uint256"
            },
            {
              "internalType": "bool",
              "name": "revoked",
              "type": "bool"
            }
          ],
          "internalType": "struct TokenVestingFactoryNaive.VestingSchedule",
          "name": "",
          "type": "tuple"
        }
      ],
      "stateMutability": "view",
      "type": "function"
    },
    {
      "inputs": [
        {
          "internalType": "bytes32",
          "name": "role",
          "type": "bytes32"
        }
      ],
      "name": "getRoleAdmin",
      "outputs": [
        {
          "internalType": "bytes32",
          "name": "",
          "type": "bytes32"
        }
      ],
      "stateMutability": "view",
      "type": "function"
    },
    {
      "inputs": [],
      "name": "getToken",
      "outputs": [
        {
          "internalType": "address",
          "name": "",
          "type": "address"
        }
      ],
      "stateMutability": "view",
      "type": "function"
    },
    {
      "inputs": [
        {
          "internalType": "uint256",
          "name": "index",
          "type": "uint256"
        }
      ],
      "name": "getVestingIdAtIndex",
      "outputs": [
        {
          "internalType": "bytes32",
          "name": "",
          "type": "bytes32"
        }
      ],
      "stateMutability": "view",
      "type": "function"
    },
    {
      "inputs": [
        {
          "internalType": "bytes32",
          "name": "vestingScheduleId",
          "type": "bytes32"
        }
      ],
      "name": "getVestingSchedule",
      "outputs": [
        {
          "components": [
            {
              "internalType": "bool",
              "name": "initialized",
              "type": "bool"
            },
            {
              "internalType": "address",
              "name": "beneficiary",
              "type": "address"
            },
            {
              "internalType": "uint256",
              "name": "cliff",
              "type": "uint256"
            },
            {
              "internalType": "uint256",
              "name": "start",
              "type": "uint256"
            },
            {
              "internalType": "uint256",
              "name": "duration",
              "type": "uint256"
            },
            {
              "internalType": "uint256",
              "name": "slicePeriodSeconds",
              "type": "uint256"
            },
            {
              "internalType": "bool",
              "name": "revocable",
              "type": "bool"
            },
            {
              "internalType": "uint256",
              "name": "amountTotal",
              "type": "uint256"
            },
            {
              "internalType": "uint256",
              "name": "released",
              "type": "uint256"
            },
            {
              "internalType": "bool",
              "name": "revoked",
              "type": "bool"
            }
          ],
          "internalType": "struct TokenVestingFactoryNaive.VestingSchedule",
          "name": "",
          "type": "tuple"
        }
      ],
      "stateMutability": "view",
      "type": "function"
    },
    {
      "inputs": [
        {
          "internalType": "address",
          "name": "holder",
          "type": "address"
        },
        {
          "internalType": "uint256",
          "name": "index",
          "type": "uint256"
        }
      ],
      "name": "getVestingScheduleByAddressAndIndex",
      "outputs": [
        {
          "components": [
            {
              "internalType": "bool",
              "name": "initialized",
              "type": "bool"
            },
            {
              "internalType": "address",
              "name": "beneficiary",
              "type": "address"
            },
            {
              "internalType": "uint256",
              "name": "cliff",
              "type": "uint256"
            },
            {
              "internalType": "uint256",
              "name": "start",
              "type": "uint256"
            },
            {
              "internalType": "uint256",
              "name": "duration",
              "type": "uint256"
            },
            {
              "internalType": "uint256",
              "name": "slicePeriodSeconds",
              "type": "uint256"
            },
            {
              "internalType": "bool",
              "name": "revocable",
              "type": "bool"
            },
            {
              "internalType": "uint256",
              "name": "amountTotal",
              "type": "uint256"
            },
            {
              "internalType": "uint256",
              "name": "released",
              "type": "uint256"
            },
            {
              "internalType": "bool",
              "name": "revoked",
              "type": "bool"
            }
          ],
          "internalType": "struct TokenVestingFactoryNaive.VestingSchedule",
          "name": "",
          "type": "tuple"
        }
      ],
      "stateMutability": "view",
      "type": "function"
    },
    {
      "inputs": [],
      "name": "getVestingSchedulesCount",
      "outputs": [
        {
          "internalType": "uint256",
          "name": "",
          "type": "uint256"
        }
      ],
      "stateMutability": "view",
      "type": "function"
    },
    {
      "inputs": [
        {
          "internalType": "address",
          "name": "_beneficiary",
          "type": "address"
        }
      ],
      "name": "getVestingSchedulesCountByBeneficiary",
      "outputs": [
        {
          "internalType": "uint256",
          "name": "",
          "type": "uint256"
        }
      ],
      "stateMutability": "view",
      "type": "function"
    },
    {
      "inputs": [],
      "name": "getVestingSchedulesTotalAmount",
      "outputs": [
        {
          "internalType": "uint256",
          "name": "",
          "type": "uint256"
        }
      ],
      "stateMutability": "view",
      "type": "function"
    },
    {
      "inputs": [],
      "name": "getWithdrawableAmount",
      "outputs": [
        {
          "internalType": "uint256",
          "name": "",
          "type": "uint256"
        }
      ],
      "stateMutability": "view",
      "type": "function"
    },
    {
      "inputs": [
        {
          "internalType": "bytes32",
          "name": "role",
          "type": "bytes32"
        },
        {
          "internalType": "address",
          "name": "account",
          "type": "address"
        }
      ],
      "name": "grantRole",
      "outputs": [],
      "stateMutability": "nonpayable",
      "type": "function"
    },
    {
      "inputs": [
        {
          "internalType": "bytes32",
          "name": "role",
          "type": "bytes32"
        },
        {
          "internalType": "address",
          "name": "account",
          "type": "address"
        }
      ],
      "name": "hasRole",
      "outputs": [
        {
          "internalType": "bool",
          "name": "",
          "type": "bool"
        }
      ],
      "stateMutability": "view",
      "type": "function"
    },
    {
      "inputs": [],
      "name": "owner",
      "outputs": [
        {
          "internalType": "address",
          "name": "",
          "type": "address"
        }
      ],
      "stateMutability": "view",
      "type": "function"
    },
    {
      "inputs": [
        {
          "internalType": "bytes32",
          "name": "vestingScheduleId",
          "type": "bytes32"
        },
        {
          "internalType": "uint256",
          "name": "amount",
          "type": "uint256"
        }
      ],
      "name": "release",
      "outputs": [],
      "stateMutability": "nonpayable",
      "type": "function"
    },
    {
      "inputs": [],
      "name": "renounceOwnership",
      "outputs": [],
      "stateMutability": "nonpayable",
      "type": "function"
    },
    {
      "inputs": [
        {
          "internalType": "bytes32",
          "name": "role",
          "type": "bytes32"
        },
        {
          "internalType": "address",
          "name": "account",
          "type": "address"
        }
      ],
      "name": "renounceRole",
      "outputs": [],
      "stateMutability": "nonpayable",
      "type": "function"
    },
    {
      "inputs": [
        {
          "internalType": "bytes32",
          "name": "vestingScheduleId",
          "type": "bytes32"
        }
      ],
      "name": "revoke",
      "outputs": [],
      "stateMutability": "nonpayable",
      "type": "function"
    },
    {
      "inputs": [
        {
          "internalType": "bytes32",
          "name": "role",
          "type": "bytes32"
        },
        {
          "internalType": "address",
          "name": "account",
          "type": "address"
        }
      ],
      "name": "revokeRole",
      "outputs": [],
      "stateMutability": "nonpayable",
      "type": "function"
    },
    {
      "inputs": [
        {
          "internalType": "bytes4",
          "name": "interfaceId",
          "type": "bytes4"
        }
      ],
      "name": "supportsInterface",
      "outputs": [
        {
          "internalType": "bool",
          "name": "",
          "type": "bool"
        }
      ],
      "stateMutability": "view",
      "type": "function"
    },
    {
      "inputs": [
        {
          "internalType": "address",
          "name": "newOwner",
          "type": "address"
        }
      ],
      "name": "transferOwnership",
      "outputs": [],
      "stateMutability": "nonpayable",
      "type": "function"
    },
    {
      "inputs": [
        {
          "internalType": "uint256",
          "name": "amount",
          "type": "uint256"
        }
      ],
      "name": "withdraw",
      "outputs": [],
      "stateMutability": "nonpayable",
      "type": "function"
    },
    {
      "stateMutability": "payable",
      "type": "receive"
    }
  ],
  "bytecode": "0x60a06040523480156200001157600080fd5b50604051620040f9380380620040f9833981810160405281019062000037919062000343565b620000576200004b620000ee60201b60201c565b620000f660201b60201c565b6001600281905550600073ffffffffffffffffffffffffffffffffffffffff168273ffffffffffffffffffffffffffffffffffffffff1614156200009a57600080fd5b8173ffffffffffffffffffffffffffffffffffffffff1660808173ffffffffffffffffffffffffffffffffffffffff1660601b81525050620000e66000801b82620001ba60201b60201c565b5050620003d2565b600033905090565b60008060009054906101000a900473ffffffffffffffffffffffffffffffffffffffff169050816000806101000a81548173ffffffffffffffffffffffffffffffffffffffff021916908373ffffffffffffffffffffffffffffffffffffffff1602179055508173ffffffffffffffffffffffffffffffffffffffff168173ffffffffffffffffffffffffffffffffffffffff167f8be0079c531659141344cd1fd0a4f28419497f9722a3daafe3b4186f6b6457e060405160405180910390a35050565b620001cc8282620001d060201b60201c565b5050565b620001e28282620002c160201b60201c565b620002bd57600180600084815260200190815260200160002060000160008373ffffffffffffffffffffffffffffffffffffffff1673ffffffffffffffffffffffffffffffffffffffff16815260200190815260200160002060006101000a81548160ff02191690831515021790555062000262620000ee60201b60201c565b73ffffffffffffffffffffffffffffffffffffffff168173ffffffffffffffffffffffffffffffffffffffff16837f2f8788117e7eff1d82e926ec794901d17c78024a50270940304540a733656f0d60405160405180910390a45b5050565b60006001600084815260200190815260200160002060000160008373ffffffffffffffffffffffffffffffffffffffff1673ffffffffffffffffffffffffffffffffffffffff16815260200190815260200160002060009054906101000a900460ff16905092915050565b6000815190506200033d81620003b8565b92915050565b600080604083850312156200035757600080fd5b600062000367858286016200032c565b92505060206200037a858286016200032c565b9150509250929050565b6000620003918262000398565b9050919050565b600073ffffffffffffffffffffffffffffffffffffffff82169050919050565b620003c38162000384565b8114620003cf57600080fd5b50565b60805160601c613cf36200040660003960008181610c2c01528181610dec0152818161127c01526115220152613cf36000f3fe6080604052600436106101a05760003560e01c80638af104da116100ec578063d547741f1161008a578063f2fde38b11610064578063f2fde38b146105f4578063f51321d71461061d578063f7c469f01461065a578063f9079b3714610697576101a7565b8063d547741f14610563578063e15fb83f1461058c578063ea1bb3d5146105b7576101a7565b806391d14854116100c657806391d14854146104955780639ef346b4146104d2578063a217fddf1461050f578063b75c7dc61461053a576101a7565b80638af104da146104025780638da5cb5b1461043f57806390be10cc1461046a576101a7565b80632f2ff15d116101595780635a7bb69a116101335780635a7bb69a1461034857806366afd8ef14610385578063715018a6146103ae5780637e913dc6146103c5576101a7565b80632f2ff15d146102cb57806336568abe146102f457806348deb4711461031d576101a7565b806301ffc9a7146101a957806313083617146101e657806317e289e91461021157806321df0da71461023a578063248a9ca3146102655780632e1a7d4d146102a2576101a7565b366101a757005b005b3480156101b557600080fd5b506101d060048036038101906101cb9190612b66565b6106d4565b6040516101dd919061315c565b60405180910390f35b3480156101f257600080fd5b506101fb61074e565b6040516102089190613410565b60405180910390f35b34801561021d57600080fd5b50610238600480360381019061023391906129d5565b61075b565b005b34801561024657600080fd5b5061024f610c28565b60405161025c9190613118565b60405180910390f35b34801561027157600080fd5b5061028c60048036038101906102879190612a9c565b610c50565b6040516102999190613177565b60405180910390f35b3480156102ae57600080fd5b506102c960048036038101906102c49190612b8f565b610c70565b005b3480156102d757600080fd5b506102f260048036038101906102ed9190612aee565b610e3b565b005b34801561030057600080fd5b5061031b60048036038101906103169190612aee565b610e64565b005b34801561032957600080fd5b50610332610ee7565b60405161033f9190613410565b60405180910390f35b34801561035457600080fd5b5061036f600480360381019061036a9190612970565b610ef1565b60405161037c9190613410565b60405180910390f35b34801561039157600080fd5b506103ac60048036038101906103a79190612b2a565b610f3a565b005b3480156103ba57600080fd5b506103c36112d2565b005b3480156103d157600080fd5b506103ec60048036038101906103e79190612970565b61135a565b6040516103f991906133f4565b60405180910390f35b34801561040e57600080fd5b5061042960048036038101906104249190612999565b6114bf565b6040516104369190613177565b60405180910390f35b34801561044b57600080fd5b506104546114f2565b6040516104619190613118565b60405180910390f35b34801561047657600080fd5b5061047f61151b565b60405161048c9190613410565b60405180910390f35b3480156104a157600080fd5b506104bc60048036038101906104b79190612aee565b6115d8565b6040516104c9919061315c565b60405180910390f35b3480156104de57600080fd5b506104f960048036038101906104f49190612a9c565b611643565b60405161050691906133f4565b60405180910390f35b34801561051b57600080fd5b50610524611754565b6040516105319190613177565b60405180910390f35b34801561054657600080fd5b50610561600480360381019061055c9190612a9c565b61175b565b005b34801561056f57600080fd5b5061058a60048036038101906105859190612aee565b6119fc565b005b34801561059857600080fd5b506105a1611a25565b6040516105ae9190613177565b60405180910390f35b3480156105c357600080fd5b506105de60048036038101906105d99190612a9c565b611a49565b6040516105eb9190613410565b60405180910390f35b34801561060057600080fd5b5061061b60048036038101906106169190612970565b611bcc565b005b34801561062957600080fd5b50610644600480360381019061063f9190612999565b611cc4565b60405161065191906133f4565b60405180910390f35b34801561066657600080fd5b50610681600480360381019061067c9190612970565b611ce6565b60405161068e9190613177565b60405180910390f35b3480156106a357600080fd5b506106be60048036038101906106b99190612b8f565b611d38565b6040516106cb9190613177565b60405180910390f35b60007f7965db0b000000000000000000000000000000000000000000000000000000007bffffffffffffffffffffffffffffffffffffffffffffffffffffffff1916827bffffffffffffffffffffffffffffffffffffffffffffffffffffffff19161480610747575061074682611dcf565b5b9050919050565b6000600380549050905090565b6107857fd10feaa7fea55567e367a112bc53907318a50949442dfc0570945570c5af57cf336115d8565b6107c4576040517f08c379a00000000000000000000000000000000000000000000000000000000081526004016107bb906131d4565b60405180910390fd5b803073ffffffffffffffffffffffffffffffffffffffff166390be10cc6040518163ffffffff1660e01b815260040160206040518083038186803b15801561080b57600080fd5b505afa15801561081f573d6000803e3d6000fd5b505050506040513d601f19601f820116820180604052508101906108439190612bb8565b1015610884576040517f08c379a000000000000000000000000000000000000000000000000000000000815260040161087b90613394565b60405180910390fd5b600084116108c7576040517f08c379a00000000000000000000000000000000000000000000000000000000081526004016108be906132f4565b60405180910390fd5b6000811161090a576040517f08c379a0000000000000000000000000000000000000000000000000000000008152600401610901906132b4565b60405180910390fd5b600183101561094e576040517f08c379a000000000000000000000000000000000000000000000000000000000815260040161094590613214565b60405180910390fd5b60003073ffffffffffffffffffffffffffffffffffffffff1663f7c469f0896040518263ffffffff1660e01b81526004016109899190613118565b60206040518083038186803b1580156109a157600080fd5b505afa1580156109b5573d6000803e3d6000fd5b505050506040513d601f19601f820116820180604052508101906109d99190612ac5565b9050600086886109e99190613468565b90506040518061014001604052806001151581526020018a73ffffffffffffffffffffffffffffffffffffffff168152602001828152602001898152602001878152602001868152602001851515815260200184815260200160008152602001600015158152506004600084815260200190815260200160002060008201518160000160006101000a81548160ff02191690831515021790555060208201518160000160016101000a81548173ffffffffffffffffffffffffffffffffffffffff021916908373ffffffffffffffffffffffffffffffffffffffff16021790555060408201518160010155606082015181600201556080820151816003015560a0820151816004015560c08201518160050160006101000a81548160ff02191690831515021790555060e0820151816006015561010082015181600701556101208201518160080160006101000a81548160ff02191690831515021790555090505082600554610b599190613468565b60058190555060038290806001815401808255809150506001900390600052602060002001600090919091909150556000600660008b73ffffffffffffffffffffffffffffffffffffffff1673ffffffffffffffffffffffffffffffffffffffff168152602001908152602001600020549050600181610bd99190613468565b600660008c73ffffffffffffffffffffffffffffffffffffffff1673ffffffffffffffffffffffffffffffffffffffff1681526020019081526020016000208190555050505050505050505050565b60007f0000000000000000000000000000000000000000000000000000000000000000905090565b600060016000838152602001908152602001600020600101549050919050565b610c9a7fd10feaa7fea55567e367a112bc53907318a50949442dfc0570945570c5af57cf336115d8565b610cd9576040517f08c379a0000000000000000000000000000000000000000000000000000000008152600401610cd0906131d4565b60405180910390fd5b600280541415610d1e576040517f08c379a0000000000000000000000000000000000000000000000000000000008152600401610d15906133b4565b60405180910390fd5b60028081905550803073ffffffffffffffffffffffffffffffffffffffff166390be10cc6040518163ffffffff1660e01b815260040160206040518083038186803b158015610d6c57600080fd5b505afa158015610d80573d6000803e3d6000fd5b505050506040513d601f19601f82011682018060405250810190610da49190612bb8565b1015610de5576040517f08c379a0000000000000000000000000000000000000000000000000000000008152600401610ddc90613334565b60405180910390fd5b610e3033827f000000000000000000000000000000000000000000000000000000000000000073ffffffffffffffffffffffffffffffffffffffff16611e399092919063ffffffff16565b600160028190555050565b610e4482610c50565b610e5581610e50611ebf565b611ec7565b610e5f8383611f64565b505050565b610e6c611ebf565b73ffffffffffffffffffffffffffffffffffffffff168173ffffffffffffffffffffffffffffffffffffffff1614610ed9576040517f08c379a0000000000000000000000000000000000000000000000000000000008152600401610ed0906133d4565b60405180910390fd5b610ee38282612044565b5050565b6000600554905090565b6000600660008373ffffffffffffffffffffffffffffffffffffffff1673ffffffffffffffffffffffffffffffffffffffff168152602001908152602001600020549050919050565b600280541415610f7f576040517f08c379a0000000000000000000000000000000000000000000000000000000008152600401610f76906133b4565b60405180910390fd5b6002808190555081600115156004600083815260200190815260200160002060000160009054906101000a900460ff16151514610fbb57600080fd5b600015156004600083815260200190815260200160002060080160009054906101000a900460ff16151514610fef57600080fd5b600060046000858152602001908152602001600020905060008160000160019054906101000a900473ffffffffffffffffffffffffffffffffffffffff1673ffffffffffffffffffffffffffffffffffffffff1661104b611ebf565b73ffffffffffffffffffffffffffffffffffffffff1614905060006110977fd10feaa7fea55567e367a112bc53907318a50949442dfc0570945570c5af57cf611092611ebf565b6115d8565b905081806110a25750805b6110e1576040517f08c379a00000000000000000000000000000000000000000000000000000000081526004016110d890613354565b60405180910390fd5b60006111db84604051806101400160405290816000820160009054906101000a900460ff161515151581526020016000820160019054906101000a900473ffffffffffffffffffffffffffffffffffffffff1673ffffffffffffffffffffffffffffffffffffffff1673ffffffffffffffffffffffffffffffffffffffff168152602001600182015481526020016002820154815260200160038201548152602001600482015481526020016005820160009054906101000a900460ff1615151515815260200160068201548152602001600782015481526020016008820160009054906101000a900460ff161515151581525050612126565b905085811015611220576040517f08c379a000000000000000000000000000000000000000000000000000000000815260040161121790613234565b60405180910390fd5b8584600701546112309190613468565b846007018190555060008460000160019054906101000a900473ffffffffffffffffffffffffffffffffffffffff1690508660055461126f9190613549565b6005819055506112c081887f000000000000000000000000000000000000000000000000000000000000000073ffffffffffffffffffffffffffffffffffffffff16611e399092919063ffffffff16565b50505050505060016002819055505050565b6112da611ebf565b73ffffffffffffffffffffffffffffffffffffffff166112f86114f2565b73ffffffffffffffffffffffffffffffffffffffff161461134e576040517f08c379a000000000000000000000000000000000000000000000000000000000815260040161134590613294565b60405180910390fd5b6113586000612216565b565b611362612859565b600460006113bb846001600660008873ffffffffffffffffffffffffffffffffffffffff1673ffffffffffffffffffffffffffffffffffffffff168152602001908152602001600020546113b69190613549565b6114bf565b8152602001908152602001600020604051806101400160405290816000820160009054906101000a900460ff161515151581526020016000820160019054906101000a900473ffffffffffffffffffffffffffffffffffffffff1673ffffffffffffffffffffffffffffffffffffffff1673ffffffffffffffffffffffffffffffffffffffff168152602001600182015481526020016002820154815260200160038201548152602001600482015481526020016005820160009054906101000a900460ff1615151515815260200160068201548152602001600782015481526020016008820160009054906101000a900460ff1615151515815250509050919050565b600082826040516020016114d492919061309b565b60405160208183030381529060405280519060200120905092915050565b60008060009054906101000a900473ffffffffffffffffffffffffffffffffffffffff16905090565b60006005547f000000000000000000000000000000000000000000000000000000000000000073ffffffffffffffffffffffffffffffffffffffff166370a08231306040518263ffffffff1660e01b81526004016115799190613118565b60206040518083038186803b15801561159157600080fd5b505afa1580156115a5573d6000803e3d6000fd5b505050506040513d601f19601f820116820180604052508101906115c99190612bb8565b6115d39190613549565b905090565b60006001600084815260200190815260200160002060000160008373ffffffffffffffffffffffffffffffffffffffff1673ffffffffffffffffffffffffffffffffffffffff16815260200190815260200160002060009054906101000a900460ff16905092915050565b61164b612859565b60046000838152602001908152602001600020604051806101400160405290816000820160009054906101000a900460ff161515151581526020016000820160019054906101000a900473ffffffffffffffffffffffffffffffffffffffff1673ffffffffffffffffffffffffffffffffffffffff1673ffffffffffffffffffffffffffffffffffffffff168152602001600182015481526020016002820154815260200160038201548152602001600482015481526020016005820160009054906101000a900460ff1615151515815260200160068201548152602001600782015481526020016008820160009054906101000a900460ff1615151515815250509050919050565b6000801b81565b6117857fd10feaa7fea55567e367a112bc53907318a50949442dfc0570945570c5af57cf336115d8565b6117c4576040517f08c379a00000000000000000000000000000000000000000000000000000000081526004016117bb906131d4565b60405180910390fd5b80600115156004600083815260200190815260200160002060000160009054906101000a900460ff161515146117f957600080fd5b600015156004600083815260200190815260200160002060080160009054906101000a900460ff1615151461182d57600080fd5b6000600460008481526020019081526020016000209050600115158160050160009054906101000a900460ff1615151461189c576040517f08c379a000000000000000000000000000000000000000000000000000000000815260040161189390613274565b60405180910390fd5b600061199682604051806101400160405290816000820160009054906101000a900460ff161515151581526020016000820160019054906101000a900473ffffffffffffffffffffffffffffffffffffffff1673ffffffffffffffffffffffffffffffffffffffff1673ffffffffffffffffffffffffffffffffffffffff168152602001600182015481526020016002820154815260200160038201548152602001600482015481526020016005820160009054906101000a900460ff1615151515815260200160068201548152602001600782015481526020016008820160009054906101000a900460ff161515151581525050612126565b905060008111156119ac576119ab8482610f3a565b5b6000826007015483600601546119c29190613549565b9050806005546119d29190613549565b60058190555060018360080160006101000a81548160ff0219169083151502179055505050505050565b611a0582610c50565b611a1681611a11611ebf565b611ec7565b611a208383612044565b505050565b7fd10feaa7fea55567e367a112bc53907318a50949442dfc0570945570c5af57cf81565b600081600115156004600083815260200190815260200160002060000160009054906101000a900460ff16151514611a8057600080fd5b600015156004600083815260200190815260200160002060080160009054906101000a900460ff16151514611ab457600080fd5b6000600460008581526020019081526020016000209050611bc381604051806101400160405290816000820160009054906101000a900460ff161515151581526020016000820160019054906101000a900473ffffffffffffffffffffffffffffffffffffffff1673ffffffffffffffffffffffffffffffffffffffff1673ffffffffffffffffffffffffffffffffffffffff168152602001600182015481526020016002820154815260200160038201548152602001600482015481526020016005820160009054906101000a900460ff1615151515815260200160068201548152602001600782015481526020016008820160009054906101000a900460ff161515151581525050612126565b92505050919050565b611bd4611ebf565b73ffffffffffffffffffffffffffffffffffffffff16611bf26114f2565b73ffffffffffffffffffffffffffffffffffffffff1614611c48576040517f08c379a0000000000000000000000000000000000000000000000000000000008152600401611c3f90613294565b60405180910390fd5b600073ffffffffffffffffffffffffffffffffffffffff168173ffffffffffffffffffffffffffffffffffffffff161415611cb8576040517f08c379a0000000000000000000000000000000000000000000000000000000008152600401611caf906131f4565b60405180910390fd5b611cc181612216565b50565b611ccc612859565b611cde611cd984846114bf565b611643565b905092915050565b6000611d3182600660008573ffffffffffffffffffffffffffffffffffffffff1673ffffffffffffffffffffffffffffffffffffffff168152602001908152602001600020546114bf565b9050919050565b6000611d4261074e565b8210611d83576040517f08c379a0000000000000000000000000000000000000000000000000000000008152600401611d7a906132d4565b60405180910390fd5b60038281548110611dbd577f4e487b7100000000000000000000000000000000000000000000000000000000600052603260045260246000fd5b90600052602060002001549050919050565b60007f01ffc9a7000000000000000000000000000000000000000000000000000000007bffffffffffffffffffffffffffffffffffffffffffffffffffffffff1916827bffffffffffffffffffffffffffffffffffffffffffffffffffffffff1916149050919050565b611eba8363a9059cbb60e01b8484604051602401611e58929190613133565b604051602081830303815290604052907bffffffffffffffffffffffffffffffffffffffffffffffffffffffff19166020820180517bffffffffffffffffffffffffffffffffffffffffffffffffffffffff83818316178352505050506122da565b505050565b600033905090565b611ed182826115d8565b611f6057611ef68173ffffffffffffffffffffffffffffffffffffffff1660146123a1565b611f048360001c60206123a1565b604051602001611f159291906130de565b6040516020818303038152906040526040517f08c379a0000000000000000000000000000000000000000000000000000000008152600401611f579190613192565b60405180910390fd5b5050565b611f6e82826115d8565b61204057600180600084815260200190815260200160002060000160008373ffffffffffffffffffffffffffffffffffffffff1673ffffffffffffffffffffffffffffffffffffffff16815260200190815260200160002060006101000a81548160ff021916908315150217905550611fe5611ebf565b73ffffffffffffffffffffffffffffffffffffffff168173ffffffffffffffffffffffffffffffffffffffff16837f2f8788117e7eff1d82e926ec794901d17c78024a50270940304540a733656f0d60405160405180910390a45b5050565b61204e82826115d8565b156121225760006001600084815260200190815260200160002060000160008373ffffffffffffffffffffffffffffffffffffffff1673ffffffffffffffffffffffffffffffffffffffff16815260200190815260200160002060006101000a81548160ff0219169083151502179055506120c7611ebf565b73ffffffffffffffffffffffffffffffffffffffff168173ffffffffffffffffffffffffffffffffffffffff16837ff6391f5c32d9c69d2a47ea670b442974b53935d1edc7fd64eb21e047a839171b60405160405180910390a45b5050565b60008061213161269b565b9050826040015181108061214e5750600115158361012001511515145b1561215d576000915050612211565b826080015183606001516121719190613468565b8110612194578261010001518360e0015161218c9190613549565b915050612211565b60008360600151826121a69190613549565b905060008460a001519050600081836121bf91906134be565b9050600082826121cf91906134ef565b905060008760800151828960e001516121e891906134ef565b6121f291906134be565b9050876101000151816122059190613549565b90508096505050505050505b919050565b60008060009054906101000a900473ffffffffffffffffffffffffffffffffffffffff169050816000806101000a81548173ffffffffffffffffffffffffffffffffffffffff021916908373ffffffffffffffffffffffffffffffffffffffff1602179055508173ffffffffffffffffffffffffffffffffffffffff168173ffffffffffffffffffffffffffffffffffffffff167f8be0079c531659141344cd1fd0a4f28419497f9722a3daafe3b4186f6b6457e060405160405180910390a35050565b600061233c826040518060400160405280602081526020017f5361666545524332303a206c6f772d6c6576656c2063616c6c206661696c65648152508573ffffffffffffffffffffffffffffffffffffffff166126a39092919063ffffffff16565b905060008151111561239c578080602001905181019061235c9190612a73565b61239b576040517f08c379a000000000000000000000000000000000000000000000000000000000815260040161239290613374565b60405180910390fd5b5b505050565b6060600060028360026123b491906134ef565b6123be9190613468565b67ffffffffffffffff8111156123fd577f4e487b7100000000000000000000000000000000000000000000000000000000600052604160045260246000fd5b6040519080825280601f01601f19166020018201604052801561242f5781602001600182028036833780820191505090505b5090507f30000000000000000000000000000000000000000000000000000000000000008160008151811061248d577f4e487b7100000000000000000000000000000000000000000000000000000000600052603260045260246000fd5b60200101907effffffffffffffffffffffffffffffffffffffffffffffffffffffffffffff1916908160001a9053507f780000000000000000000000000000000000000000000000000000000000000081600181518110612517577f4e487b7100000000000000000000000000000000000000000000000000000000600052603260045260246000fd5b60200101907effffffffffffffffffffffffffffffffffffffffffffffffffffffffffffff1916908160001a9053506000600184600261255791906134ef565b6125619190613468565b90505b600181111561264d577f3031323334353637383961626364656600000000000000000000000000000000600f8616601081106125c9577f4e487b7100000000000000000000000000000000000000000000000000000000600052603260045260246000fd5b1a60f81b828281518110612606577f4e487b7100000000000000000000000000000000000000000000000000000000600052603260045260246000fd5b60200101907effffffffffffffffffffffffffffffffffffffffffffffffffffffffffffff1916908160001a905350600485901c9450806126469061362e565b9050612564565b5060008414612691576040517f08c379a0000000000000000000000000000000000000000000000000000000008152600401612688906131b4565b60405180910390fd5b8091505092915050565b600042905090565b60606126b284846000856126bb565b90509392505050565b606082471015612700576040517f08c379a00000000000000000000000000000000000000000000000000000000081526004016126f790613254565b60405180910390fd5b612709856127cf565b612748576040517f08c379a000000000000000000000000000000000000000000000000000000000815260040161273f90613314565b60405180910390fd5b6000808673ffffffffffffffffffffffffffffffffffffffff16858760405161277191906130c7565b60006040518083038185875af1925050503d80600081146127ae576040519150601f19603f3d011682016040523d82523d6000602084013e6127b3565b606091505b50915091506127c38282866127f2565b92505050949350505050565b6000808273ffffffffffffffffffffffffffffffffffffffff163b119050919050565b6060831561280257829050612852565b6000835111156128155782518084602001fd5b816040517f08c379a00000000000000000000000000000000000000000000000000000000081526004016128499190613192565b60405180910390fd5b9392505050565b604051806101400160405280600015158152602001600073ffffffffffffffffffffffffffffffffffffffff1681526020016000815260200160008152602001600081526020016000815260200160001515815260200160008152602001600081526020016000151581525090565b6000813590506128d781613c4a565b92915050565b6000813590506128ec81613c61565b92915050565b60008151905061290181613c61565b92915050565b60008135905061291681613c78565b92915050565b60008151905061292b81613c78565b92915050565b60008135905061294081613c8f565b92915050565b60008135905061295581613ca6565b92915050565b60008151905061296a81613ca6565b92915050565b60006020828403121561298257600080fd5b6000612990848285016128c8565b91505092915050565b600080604083850312156129ac57600080fd5b60006129ba858286016128c8565b92505060206129cb85828601612946565b9150509250929050565b600080600080600080600060e0888a0312156129f057600080fd5b60006129fe8a828b016128c8565b9750506020612a0f8a828b01612946565b9650506040612a208a828b01612946565b9550506060612a318a828b01612946565b9450506080612a428a828b01612946565b93505060a0612a538a828b016128dd565b92505060c0612a648a828b01612946565b91505092959891949750929550565b600060208284031215612a8557600080fd5b6000612a93848285016128f2565b91505092915050565b600060208284031215612aae57600080fd5b6000612abc84828501612907565b91505092915050565b600060208284031215612ad757600080fd5b6000612ae58482850161291c565b91505092915050565b60008060408385031215612b0157600080fd5b6000612b0f85828601612907565b9250506020612b20858286016128c8565b9150509250929050565b60008060408385031215612b3d57600080fd5b6000612b4b85828601612907565b9250506020612b5c85828601612946565b9150509250929050565b600060208284031215612b7857600080fd5b6000612b8684828501612931565b91505092915050565b600060208284031215612ba157600080fd5b6000612baf84828501612946565b91505092915050565b600060208284031215612bca57600080fd5b6000612bd88482850161295b565b91505092915050565b612bea8161357d565b82525050565b612bf98161357d565b82525050565b612c10612c0b8261357d565b613658565b82525050565b612c1f8161358f565b82525050565b612c2e8161358f565b82525050565b612c3d8161359b565b82525050565b6000612c4e8261342b565b612c588185613441565b9350612c688185602086016135fb565b80840191505092915050565b6000612c7f82613436565b612c89818561344c565b9350612c998185602086016135fb565b612ca2816136e4565b840191505092915050565b6000612cb882613436565b612cc2818561345d565b9350612cd28185602086016135fb565b80840191505092915050565b6000612ceb60208361344c565b9150612cf682613702565b602082019050919050565b6000612d0e60178361344c565b9150612d198261372b565b602082019050919050565b6000612d3160268361344c565b9150612d3c82613754565b604082019050919050565b6000612d54602d8361344c565b9150612d5f826137a3565b604082019050919050565b6000612d77603d8361344c565b9150612d82826137f2565b604082019050919050565b6000612d9a60268361344c565b9150612da582613841565b604082019050919050565b6000612dbd60268361344c565b9150612dc882613890565b604082019050919050565b6000612de060208361344c565b9150612deb826138df565b602082019050919050565b6000612e0360208361344c565b9150612e0e82613908565b602082019050919050565b6000612e2660218361344c565b9150612e3182613931565b604082019050919050565b6000612e4960228361344c565b9150612e5482613980565b604082019050919050565b6000612e6c601d8361344c565b9150612e77826139cf565b602082019050919050565b6000612e8f602b8361344c565b9150612e9a826139f8565b604082019050919050565b6000612eb260448361344c565b9150612ebd82613a47565b606082019050919050565b6000612ed560178361345d565b9150612ee082613abc565b601782019050919050565b6000612ef8602a8361344c565b9150612f0382613ae5565b604082019050919050565b6000612f1b604a8361344c565b9150612f2682613b34565b606082019050919050565b6000612f3e601f8361344c565b9150612f4982613ba9565b602082019050919050565b6000612f6160118361345d565b9150612f6c82613bd2565b601182019050919050565b6000612f84602f8361344c565b9150612f8f82613bfb565b604082019050919050565b61014082016000820151612fb16000850182612c16565b506020820151612fc46020850182612be1565b506040820151612fd76040850182613066565b506060820151612fea6060850182613066565b506080820151612ffd6080850182613066565b5060a082015161301060a0850182613066565b5060c082015161302360c0850182612c16565b5060e082015161303660e0850182613066565b5061010082015161304b610100850182613066565b50610120820151613060610120850182612c16565b50505050565b61306f816135f1565b82525050565b61307e816135f1565b82525050565b613095613090826135f1565b61367c565b82525050565b60006130a78285612bff565b6014820191506130b78284613084565b6020820191508190509392505050565b60006130d38284612c43565b915081905092915050565b60006130e982612ec8565b91506130f58285612cad565b915061310082612f54565b915061310c8284612cad565b91508190509392505050565b600060208201905061312d6000830184612bf0565b92915050565b60006040820190506131486000830185612bf0565b6131556020830184613075565b9392505050565b60006020820190506131716000830184612c25565b92915050565b600060208201905061318c6000830184612c34565b92915050565b600060208201905081810360008301526131ac8184612c74565b905092915050565b600060208201905081810360008301526131cd81612cde565b9050919050565b600060208201905081810360008301526131ed81612d01565b9050919050565b6000602082019050818103600083015261320d81612d24565b9050919050565b6000602082019050818103600083015261322d81612d47565b9050919050565b6000602082019050818103600083015261324d81612d6a565b9050919050565b6000602082019050818103600083015261326d81612d8d565b9050919050565b6000602082019050818103600083015261328d81612db0565b9050919050565b600060208201905081810360008301526132ad81612dd3565b9050919050565b600060208201905081810360008301526132cd81612df6565b9050919050565b600060208201905081810360008301526132ed81612e19565b9050919050565b6000602082019050818103600083015261330d81612e3c565b9050919050565b6000602082019050818103600083015261332d81612e5f565b9050919050565b6000602082019050818103600083015261334d81612e82565b9050919050565b6000602082019050818103600083015261336d81612ea5565b9050919050565b6000602082019050818103600083015261338d81612eeb565b9050919050565b600060208201905081810360008301526133ad81612f0e565b9050919050565b600060208201905081810360008301526133cd81612f31565b9050919050565b600060208201905081810360008301526133ed81612f77565b9050919050565b60006101408201905061340a6000830184612f9a565b92915050565b60006020820190506134256000830184613075565b92915050565b600081519050919050565b600081519050919050565b600081905092915050565b600082825260208201905092915050565b600081905092915050565b6000613473826135f1565b915061347e836135f1565b9250827fffffffffffffffffffffffffffffffffffffffffffffffffffffffffffffffff038211156134b3576134b2613686565b5b828201905092915050565b60006134c9826135f1565b91506134d4836135f1565b9250826134e4576134e36136b5565b5b828204905092915050565b60006134fa826135f1565b9150613505836135f1565b9250817fffffffffffffffffffffffffffffffffffffffffffffffffffffffffffffffff048311821515161561353e5761353d613686565b5b828202905092915050565b6000613554826135f1565b915061355f836135f1565b92508282101561357257613571613686565b5b828203905092915050565b6000613588826135d1565b9050919050565b60008115159050919050565b6000819050919050565b60007fffffffff0000000000000000000000000000000000000000000000000000000082169050919050565b600073ffffffffffffffffffffffffffffffffffffffff82169050919050565b6000819050919050565b60005b838110156136195780820151818401526020810190506135fe565b83811115613628576000848401525b50505050565b6000613639826135f1565b9150600082141561364d5761364c613686565b5b600182039050919050565b60006136638261366a565b9050919050565b6000613675826136f5565b9050919050565b6000819050919050565b7f4e487b7100000000000000000000000000000000000000000000000000000000600052601160045260246000fd5b7f4e487b7100000000000000000000000000000000000000000000000000000000600052601260045260246000fd5b6000601f19601f8301169050919050565b60008160601b9050919050565b7f537472696e67733a20686578206c656e67746820696e73756666696369656e74600082015250565b7f43616c6c6572206973206e6f742061204772616e746f72000000000000000000600082015250565b7f4f776e61626c653a206e6577206f776e657220697320746865207a65726f206160008201527f6464726573730000000000000000000000000000000000000000000000000000602082015250565b7f546f6b656e56657374696e673a20736c696365506572696f645365636f6e647360008201527f206d757374206265203e3d203100000000000000000000000000000000000000602082015250565b7f546f6b656e56657374696e673a2063616e6e6f742072656c6561736520746f6b60008201527f656e732c206e6f7420656e6f7567682076657374656420746f6b656e73000000602082015250565b7f416464726573733a20696e73756666696369656e742062616c616e636520666f60008201527f722063616c6c0000000000000000000000000000000000000000000000000000602082015250565b7f546f6b656e56657374696e673a2076657374696e67206973206e6f742072657660008201527f6f6361626c650000000000000000000000000000000000000000000000000000602082015250565b7f4f776e61626c653a2063616c6c6572206973206e6f7420746865206f776e6572600082015250565b7f546f6b656e56657374696e673a20616d6f756e74206d757374206265203e2030600082015250565b7f546f6b656e56657374696e673a20696e646578206f7574206f6620626f756e6460008201527f7300000000000000000000000000000000000000000000000000000000000000602082015250565b7f546f6b656e56657374696e673a206475726174696f6e206d757374206265203e60008201527f2030000000000000000000000000000000000000000000000000000000000000602082015250565b7f416464726573733a2063616c6c20746f206e6f6e2d636f6e7472616374000000600082015250565b7f546f6b656e56657374696e673a206e6f7420656e6f756768207769746864726160008201527f7761626c652066756e6473000000000000000000000000000000000000000000602082015250565b7f546f6b656e56657374696e673a206f6e6c792062656e6566696369617279206160008201527f6e64206772616e746f722063616e2072656c656173652076657374656420746f60208201527f6b656e7300000000000000000000000000000000000000000000000000000000604082015250565b7f416363657373436f6e74726f6c3a206163636f756e7420000000000000000000600082015250565b7f5361666545524332303a204552433230206f7065726174696f6e20646964206e60008201527f6f74207375636365656400000000000000000000000000000000000000000000602082015250565b7f546f6b656e56657374696e673a2063616e6e6f7420637265617465207665737460008201527f696e67207363686564756c652062656361757365206e6f74207375666669636960208201527f656e7420746f6b656e7300000000000000000000000000000000000000000000604082015250565b7f5265656e7472616e637947756172643a207265656e7472616e742063616c6c00600082015250565b7f206973206d697373696e6720726f6c6520000000000000000000000000000000600082015250565b7f416363657373436f6e74726f6c3a2063616e206f6e6c792072656e6f756e636560008201527f20726f6c657320666f722073656c660000000000000000000000000000000000602082015250565b613c538161357d565b8114613c5e57600080fd5b50565b613c6a8161358f565b8114613c7557600080fd5b50565b613c818161359b565b8114613c8c57600080fd5b50565b613c98816135a5565b8114613ca357600080fd5b50565b613caf816135f1565b8114613cba57600080fd5b5056fea264697066735822122042c17b99e8cb3d652c0b55ac07ebd4df4e07b826362729ff830927cdca1876cc64736f6c63430008020033",
  "linkReferences": {},
  "deployedLinkReferences": {}
}