{
  "_format": "hh-sol-artifact-1",
  "contractName": "TokenVestingClone",
  "sourceName": "contracts/TokenVestingClone.sol",
  "abi": [
    {
      "inputs": [
        {
          "internalType": "address",
          "name": "token_",
          "type": "address"
        }
      ],
      "stateMutability": "nonpayable",
      "type": "constructor"
    },
    {
      "anonymous": false,
      "inputs": [
        {
          "indexed": true,
          "internalType": "address",
          "name": "previousOwner",
          "type": "address"
        },
        {
          "indexed": true,
          "internalType": "address",
          "name": "newOwner",
          "type": "address"
        }
      ],
      "name": "OwnershipTransferred",
      "type": "event"
    },
    {
      "anonymous": false,
      "inputs": [
        {
          "indexed": false,
          "internalType": "address payable",
          "name": "deployed",
          "type": "address"
        }
      ],
      "name": "deployedVestingContract",
      "type": "event"
    },
    {
      "inputs": [],
      "name": "createNewVestingContract",
      "outputs": [],
      "stateMutability": "nonpayable",
      "type": "function"
    },
    {
      "inputs": [],
      "name": "owner",
      "outputs": [
        {
          "internalType": "address",
          "name": "",
          "type": "address"
        }
      ],
      "stateMutability": "view",
      "type": "function"
    },
    {
      "inputs": [],
      "name": "renounceOwnership",
      "outputs": [],
      "stateMutability": "nonpayable",
      "type": "function"
    },
    {
      "inputs": [
        {
          "internalType": "address",
          "name": "newOwner",
          "type": "address"
        }
      ],
      "name": "transferOwnership",
      "outputs": [],
      "stateMutability": "nonpayable",
      "type": "function"
    }
  ],
  "bytecode": "0x60a060405234801561001057600080fd5b5060405162004c0838038062004c08833981810160405281019061003491906101e5565b6100506100456100f660201b60201c565b6100fe60201b60201c565b80600160006101000a81548173ffffffffffffffffffffffffffffffffffffffff021916908373ffffffffffffffffffffffffffffffffffffffff16021790555060405161009d906101c2565b604051809103906000f0801580156100b9573d6000803e3d6000fd5b5073ffffffffffffffffffffffffffffffffffffffff1660808173ffffffffffffffffffffffffffffffffffffffff1660601b8152505050610257565b600033905090565b60008060009054906101000a900473ffffffffffffffffffffffffffffffffffffffff169050816000806101000a81548173ffffffffffffffffffffffffffffffffffffffff021916908373ffffffffffffffffffffffffffffffffffffffff1602179055508173ffffffffffffffffffffffffffffffffffffffff168173ffffffffffffffffffffffffffffffffffffffff167f8be0079c531659141344cd1fd0a4f28419497f9722a3daafe3b4186f6b6457e060405160405180910390a35050565b6141708062000a9883390190565b6000815190506101df81610240565b92915050565b6000602082840312156101f757600080fd5b6000610205848285016101d0565b91505092915050565b600061021982610220565b9050919050565b600073ffffffffffffffffffffffffffffffffffffffff82169050919050565b6102498161020e565b811461025457600080fd5b50565b60805160601c6108226200027660003960006101d301526108226000f3fe608060405234801561001057600080fd5b506004361061004c5760003560e01c8063715018a6146100515780638da5cb5b1461005b578063df5ed86f14610079578063f2fde38b14610083575b600080fd5b61005961009f565b005b610063610127565b6040516100709190610620565b60405180910390f35b610081610150565b005b61009d60048036038101906100989190610570565b6102c2565b005b6100a76103ba565b73ffffffffffffffffffffffffffffffffffffffff166100c5610127565b73ffffffffffffffffffffffffffffffffffffffff161461011b576040517f08c379a0000000000000000000000000000000000000000000000000000000008152600401610112906106bf565b60405180910390fd5b61012560006103c2565b565b60008060009054906101000a900473ffffffffffffffffffffffffffffffffffffffff16905090565b6101586103ba565b73ffffffffffffffffffffffffffffffffffffffff16610176610127565b73ffffffffffffffffffffffffffffffffffffffff16146101cc576040517f08c379a00000000000000000000000000000000000000000000000000000000081526004016101c3906106bf565b60405180910390fd5b60006101f77f0000000000000000000000000000000000000000000000000000000000000000610486565b90508073ffffffffffffffffffffffffffffffffffffffff1663485cc955600160009054906101000a900473ffffffffffffffffffffffffffffffffffffffff16336040518363ffffffff1660e01b8152600401610256929190610656565b600060405180830381600087803b15801561027057600080fd5b505af1158015610284573d6000803e3d6000fd5b505050507f7bd2d65ee7d2278e947688132fe847fde9a11ca8d1af7c30169e1322ac023560816040516102b7919061063b565b60405180910390a150565b6102ca6103ba565b73ffffffffffffffffffffffffffffffffffffffff166102e8610127565b73ffffffffffffffffffffffffffffffffffffffff161461033e576040517f08c379a0000000000000000000000000000000000000000000000000000000008152600401610335906106bf565b60405180910390fd5b600073ffffffffffffffffffffffffffffffffffffffff168173ffffffffffffffffffffffffffffffffffffffff1614156103ae576040517f08c379a00000000000000000000000000000000000000000000000000000000081526004016103a59061067f565b60405180910390fd5b6103b7816103c2565b50565b600033905090565b60008060009054906101000a900473ffffffffffffffffffffffffffffffffffffffff169050816000806101000a81548173ffffffffffffffffffffffffffffffffffffffff021916908373ffffffffffffffffffffffffffffffffffffffff1602179055508173ffffffffffffffffffffffffffffffffffffffff168173ffffffffffffffffffffffffffffffffffffffff167f8be0079c531659141344cd1fd0a4f28419497f9722a3daafe3b4186f6b6457e060405160405180910390a35050565b60006040517f3d602d80600a3d3981f3363d3d373d3d3d363d7300000000000000000000000081528260601b60148201527f5af43d82803e903d91602b57fd5bf3000000000000000000000000000000000060288201526037816000f0915050600073ffffffffffffffffffffffffffffffffffffffff168173ffffffffffffffffffffffffffffffffffffffff161415610556576040517f08c379a000000000000000000000000000000000000000000000000000000000815260040161054d9061069f565b60405180910390fd5b919050565b60008135905061056a816107d5565b92915050565b60006020828403121561058257600080fd5b60006105908482850161055b565b91505092915050565b6105a281610702565b82525050565b6105b1816106f0565b82525050565b60006105c46026836106df565b91506105cf82610734565b604082019050919050565b60006105e76016836106df565b91506105f282610783565b602082019050919050565b600061060a6020836106df565b9150610615826107ac565b602082019050919050565b600060208201905061063560008301846105a8565b92915050565b60006020820190506106506000830184610599565b92915050565b600060408201905061066b60008301856105a8565b61067860208301846105a8565b9392505050565b60006020820190508181036000830152610698816105b7565b9050919050565b600060208201905081810360008301526106b8816105da565b9050919050565b600060208201905081810360008301526106d8816105fd565b9050919050565b600082825260208201905092915050565b60006106fb82610714565b9050919050565b600061070d82610714565b9050919050565b600073ffffffffffffffffffffffffffffffffffffffff82169050919050565b7f4f776e61626c653a206e6577206f776e657220697320746865207a65726f206160008201527f6464726573730000000000000000000000000000000000000000000000000000602082015250565b7f455243313136373a20637265617465206661696c656400000000000000000000600082015250565b7f4f776e61626c653a2063616c6c6572206973206e6f7420746865206f776e6572600082015250565b6107de816106f0565b81146107e957600080fd5b5056fea2646970667358221220bc48601a0d7bf44d8ebdda32840c4d1ad7938ef6210087470452f77cf0fac12e64736f6c6343000802003360806040523480156200001157600080fd5b5062000032620000266200004060201b60201c565b6200004860201b60201c565b60016002819055506200010c565b600033905090565b60008060009054906101000a900473ffffffffffffffffffffffffffffffffffffffff169050816000806101000a81548173ffffffffffffffffffffffffffffffffffffffff021916908373ffffffffffffffffffffffffffffffffffffffff1602179055508173ffffffffffffffffffffffffffffffffffffffff168173ffffffffffffffffffffffffffffffffffffffff167f8be0079c531659141344cd1fd0a4f28419497f9722a3daafe3b4186f6b6457e060405160405180910390a35050565b614054806200011c6000396000f3fe6080604052600436106101bb5760003560e01c80638af104da116100ec578063d547741f1161008a578063f2fde38b11610064578063f2fde38b14610638578063f51321d714610661578063f7c469f01461069e578063f9079b37146106db576101c2565b8063d547741f146105a7578063e15fb83f146105d0578063ea1bb3d5146105fb576101c2565b806391d14854116100c657806391d14854146104d95780639ef346b414610516578063a217fddf14610553578063b75c7dc61461057e576101c2565b80638af104da146104465780638da5cb5b1461048357806390be10cc146104ae576101c2565b806336568abe116101595780635a7bb69a116101335780635a7bb69a1461038c57806366afd8ef146103c9578063715018a6146103f25780637e913dc614610409576101c2565b806336568abe1461030f578063485cc9551461033857806348deb47114610361576101c2565b806321df0da71161019557806321df0da714610255578063248a9ca3146102805780632e1a7d4d146102bd5780632f2ff15d146102e6576101c2565b806301ffc9a7146101c4578063130836171461020157806317e289e91461022c576101c2565b366101c257005b005b3480156101d057600080fd5b506101eb60048036038101906101e69190612da3565b610718565b6040516101f891906133df565b60405180910390f35b34801561020d57600080fd5b50610216610792565b60405161022391906136d3565b60405180910390f35b34801561023857600080fd5b50610253600480360381019061024e9190612c12565b61079f565b005b34801561026157600080fd5b5061026a610c6c565b604051610277919061339b565b60405180910390f35b34801561028c57600080fd5b506102a760048036038101906102a29190612cd9565b610c96565b6040516102b491906133fa565b60405180910390f35b3480156102c957600080fd5b506102e460048036038101906102df9190612dcc565b610cb6565b005b3480156102f257600080fd5b5061030d60048036038101906103089190612d2b565b610e83565b005b34801561031b57600080fd5b5061033660048036038101906103319190612d2b565b610eac565b005b34801561034457600080fd5b5061035f600480360381019061035a9190612b9a565b610f2f565b005b34801561036d57600080fd5b50610376611024565b60405161038391906136d3565b60405180910390f35b34801561039857600080fd5b506103b360048036038101906103ae9190612b71565b61102e565b6040516103c091906136d3565b60405180910390f35b3480156103d557600080fd5b506103f060048036038101906103eb9190612d67565b611077565b005b3480156103fe57600080fd5b50610407611411565b005b34801561041557600080fd5b50610430600480360381019061042b9190612b71565b611499565b60405161043d91906136b7565b60405180910390f35b34801561045257600080fd5b5061046d60048036038101906104689190612bd6565b6115fe565b60405161047a91906133fa565b60405180910390f35b34801561048f57600080fd5b50610498611631565b6040516104a5919061339b565b60405180910390f35b3480156104ba57600080fd5b506104c361165a565b6040516104d091906136d3565b60405180910390f35b3480156104e557600080fd5b5061050060048036038101906104fb9190612d2b565b611719565b60405161050d91906133df565b60405180910390f35b34801561052257600080fd5b5061053d60048036038101906105389190612cd9565b611784565b60405161054a91906136b7565b60405180910390f35b34801561055f57600080fd5b50610568611895565b60405161057591906133fa565b60405180910390f35b34801561058a57600080fd5b506105a560048036038101906105a09190612cd9565b61189c565b005b3480156105b357600080fd5b506105ce60048036038101906105c99190612d2b565b611b3d565b005b3480156105dc57600080fd5b506105e5611b66565b6040516105f291906133fa565b60405180910390f35b34801561060757600080fd5b50610622600480360381019061061d9190612cd9565b611b8a565b60405161062f91906136d3565b60405180910390f35b34801561064457600080fd5b5061065f600480360381019061065a9190612b71565b611d0d565b005b34801561066d57600080fd5b5061068860048036038101906106839190612bd6565b611e05565b60405161069591906136b7565b60405180910390f35b3480156106aa57600080fd5b506106c560048036038101906106c09190612b71565b611e27565b6040516106d291906133fa565b60405180910390f35b3480156106e757600080fd5b5061070260048036038101906106fd9190612dcc565b611e79565b60405161070f91906133fa565b60405180910390f35b60007f7965db0b000000000000000000000000000000000000000000000000000000007bffffffffffffffffffffffffffffffffffffffffffffffffffffffff1916827bffffffffffffffffffffffffffffffffffffffffffffffffffffffff1916148061078b575061078a82611f10565b5b9050919050565b6000600480549050905090565b6107c97fd10feaa7fea55567e367a112bc53907318a50949442dfc0570945570c5af57cf33611719565b610808576040517f08c379a00000000000000000000000000000000000000000000000000000000081526004016107ff90613457565b60405180910390fd5b803073ffffffffffffffffffffffffffffffffffffffff166390be10cc6040518163ffffffff1660e01b815260040160206040518083038186803b15801561084f57600080fd5b505afa158015610863573d6000803e3d6000fd5b505050506040513d601f19601f820116820180604052508101906108879190612df5565b10156108c8576040517f08c379a00000000000000000000000000000000000000000000000000000000081526004016108bf90613657565b60405180910390fd5b6000841161090b576040517f08c379a000000000000000000000000000000000000000000000000000000000815260040161090290613597565b60405180910390fd5b6000811161094e576040517f08c379a000000000000000000000000000000000000000000000000000000000815260040161094590613557565b60405180910390fd5b6001831015610992576040517f08c379a000000000000000000000000000000000000000000000000000000000815260040161098990613497565b60405180910390fd5b60003073ffffffffffffffffffffffffffffffffffffffff1663f7c469f0896040518263ffffffff1660e01b81526004016109cd919061339b565b60206040518083038186803b1580156109e557600080fd5b505afa1580156109f9573d6000803e3d6000fd5b505050506040513d601f19601f82011682018060405250810190610a1d9190612d02565b905060008688610a2d919061372b565b90506040518061014001604052806001151581526020018a73ffffffffffffffffffffffffffffffffffffffff168152602001828152602001898152602001878152602001868152602001851515815260200184815260200160008152602001600015158152506005600084815260200190815260200160002060008201518160000160006101000a81548160ff02191690831515021790555060208201518160000160016101000a81548173ffffffffffffffffffffffffffffffffffffffff021916908373ffffffffffffffffffffffffffffffffffffffff16021790555060408201518160010155606082015181600201556080820151816003015560a0820151816004015560c08201518160050160006101000a81548160ff02191690831515021790555060e0820151816006015561010082015181600701556101208201518160080160006101000a81548160ff02191690831515021790555090505082600654610b9d919061372b565b60068190555060048290806001815401808255809150506001900390600052602060002001600090919091909150556000600760008b73ffffffffffffffffffffffffffffffffffffffff1673ffffffffffffffffffffffffffffffffffffffff168152602001908152602001600020549050600181610c1d919061372b565b600760008c73ffffffffffffffffffffffffffffffffffffffff1673ffffffffffffffffffffffffffffffffffffffff1681526020019081526020016000208190555050505050505050505050565b6000600360029054906101000a900473ffffffffffffffffffffffffffffffffffffffff16905090565b600060016000838152602001908152602001600020600101549050919050565b610ce07fd10feaa7fea55567e367a112bc53907318a50949442dfc0570945570c5af57cf33611719565b610d1f576040517f08c379a0000000000000000000000000000000000000000000000000000000008152600401610d1690613457565b60405180910390fd5b600280541415610d64576040517f08c379a0000000000000000000000000000000000000000000000000000000008152600401610d5b90613677565b60405180910390fd5b60028081905550803073ffffffffffffffffffffffffffffffffffffffff166390be10cc6040518163ffffffff1660e01b815260040160206040518083038186803b158015610db257600080fd5b505afa158015610dc6573d6000803e3d6000fd5b505050506040513d601f19601f82011682018060405250810190610dea9190612df5565b1015610e2b576040517f08c379a0000000000000000000000000000000000000000000000000000000008152600401610e22906135d7565b60405180910390fd5b610e783382600360029054906101000a900473ffffffffffffffffffffffffffffffffffffffff1673ffffffffffffffffffffffffffffffffffffffff16611f7a9092919063ffffffff16565b600160028190555050565b610e8c82610c96565b610e9d81610e98612000565b612008565b610ea783836120a5565b505050565b610eb4612000565b73ffffffffffffffffffffffffffffffffffffffff168173ffffffffffffffffffffffffffffffffffffffff1614610f21576040517f08c379a0000000000000000000000000000000000000000000000000000000008152600401610f1890613697565b60405180910390fd5b610f2b8282612185565b5050565b600360019054906101000a900460ff16610f5957600360009054906101000a900460ff1615610f62565b610f61612267565b5b610fa1576040517f08c379a0000000000000000000000000000000000000000000000000000000008152600401610f9890613517565b60405180910390fd5b6000600360019054906101000a900460ff161590508015610ff3576001600360016101000a81548160ff0219169083151502179055506001600360006101000a81548160ff0219169083151502179055505b610ffd8383612278565b801561101f576000600360016101000a81548160ff0219169083151502179055505b505050565b6000600654905090565b6000600760008373ffffffffffffffffffffffffffffffffffffffff1673ffffffffffffffffffffffffffffffffffffffff168152602001908152602001600020549050919050565b6002805414156110bc576040517f08c379a00000000000000000000000000000000000000000000000000000000081526004016110b390613677565b60405180910390fd5b6002808190555081600115156005600083815260200190815260200160002060000160009054906101000a900460ff161515146110f857600080fd5b600015156005600083815260200190815260200160002060080160009054906101000a900460ff1615151461112c57600080fd5b600060056000858152602001908152602001600020905060008160000160019054906101000a900473ffffffffffffffffffffffffffffffffffffffff1673ffffffffffffffffffffffffffffffffffffffff16611188612000565b73ffffffffffffffffffffffffffffffffffffffff1614905060006111d47fd10feaa7fea55567e367a112bc53907318a50949442dfc0570945570c5af57cf6111cf612000565b611719565b905081806111df5750805b61121e576040517f08c379a0000000000000000000000000000000000000000000000000000000008152600401611215906135f7565b60405180910390fd5b600061131884604051806101400160405290816000820160009054906101000a900460ff161515151581526020016000820160019054906101000a900473ffffffffffffffffffffffffffffffffffffffff1673ffffffffffffffffffffffffffffffffffffffff1673ffffffffffffffffffffffffffffffffffffffff168152602001600182015481526020016002820154815260200160038201548152602001600482015481526020016005820160009054906101000a900460ff1615151515815260200160068201548152602001600782015481526020016008820160009054906101000a900460ff161515151581525050612319565b90508581101561135d576040517f08c379a0000000000000000000000000000000000000000000000000000000008152600401611354906134b7565b60405180910390fd5b85846007015461136d919061372b565b846007018190555060008460000160019054906101000a900473ffffffffffffffffffffffffffffffffffffffff169050866006546113ac919061380c565b6006819055506113ff8188600360029054906101000a900473ffffffffffffffffffffffffffffffffffffffff1673ffffffffffffffffffffffffffffffffffffffff16611f7a9092919063ffffffff16565b50505050505060016002819055505050565b611419612000565b73ffffffffffffffffffffffffffffffffffffffff16611437611631565b73ffffffffffffffffffffffffffffffffffffffff161461148d576040517f08c379a000000000000000000000000000000000000000000000000000000000815260040161148490613537565b60405180910390fd5b6114976000612409565b565b6114a1612a5a565b600560006114fa846001600760008873ffffffffffffffffffffffffffffffffffffffff1673ffffffffffffffffffffffffffffffffffffffff168152602001908152602001600020546114f5919061380c565b6115fe565b8152602001908152602001600020604051806101400160405290816000820160009054906101000a900460ff161515151581526020016000820160019054906101000a900473ffffffffffffffffffffffffffffffffffffffff1673ffffffffffffffffffffffffffffffffffffffff1673ffffffffffffffffffffffffffffffffffffffff168152602001600182015481526020016002820154815260200160038201548152602001600482015481526020016005820160009054906101000a900460ff1615151515815260200160068201548152602001600782015481526020016008820160009054906101000a900460ff1615151515815250509050919050565b6000828260405160200161161392919061331e565b60405160208183030381529060405280519060200120905092915050565b60008060009054906101000a900473ffffffffffffffffffffffffffffffffffffffff16905090565b6000600654600360029054906101000a900473ffffffffffffffffffffffffffffffffffffffff1673ffffffffffffffffffffffffffffffffffffffff166370a08231306040518263ffffffff1660e01b81526004016116ba919061339b565b60206040518083038186803b1580156116d257600080fd5b505afa1580156116e6573d6000803e3d6000fd5b505050506040513d601f19601f8201168201806040525081019061170a9190612df5565b611714919061380c565b905090565b60006001600084815260200190815260200160002060000160008373ffffffffffffffffffffffffffffffffffffffff1673ffffffffffffffffffffffffffffffffffffffff16815260200190815260200160002060009054906101000a900460ff16905092915050565b61178c612a5a565b60056000838152602001908152602001600020604051806101400160405290816000820160009054906101000a900460ff161515151581526020016000820160019054906101000a900473ffffffffffffffffffffffffffffffffffffffff1673ffffffffffffffffffffffffffffffffffffffff1673ffffffffffffffffffffffffffffffffffffffff168152602001600182015481526020016002820154815260200160038201548152602001600482015481526020016005820160009054906101000a900460ff1615151515815260200160068201548152602001600782015481526020016008820160009054906101000a900460ff1615151515815250509050919050565b6000801b81565b6118c67fd10feaa7fea55567e367a112bc53907318a50949442dfc0570945570c5af57cf33611719565b611905576040517f08c379a00000000000000000000000000000000000000000000000000000000081526004016118fc90613457565b60405180910390fd5b80600115156005600083815260200190815260200160002060000160009054906101000a900460ff1615151461193a57600080fd5b600015156005600083815260200190815260200160002060080160009054906101000a900460ff1615151461196e57600080fd5b6000600560008481526020019081526020016000209050600115158160050160009054906101000a900460ff161515146119dd576040517f08c379a00000000000000000000000000000000000000000000000000000000081526004016119d4906134f7565b60405180910390fd5b6000611ad782604051806101400160405290816000820160009054906101000a900460ff161515151581526020016000820160019054906101000a900473ffffffffffffffffffffffffffffffffffffffff1673ffffffffffffffffffffffffffffffffffffffff1673ffffffffffffffffffffffffffffffffffffffff168152602001600182015481526020016002820154815260200160038201548152602001600482015481526020016005820160009054906101000a900460ff1615151515815260200160068201548152602001600782015481526020016008820160009054906101000a900460ff161515151581525050612319565b90506000811115611aed57611aec8482611077565b5b600082600701548360060154611b03919061380c565b905080600654611b13919061380c565b60068190555060018360080160006101000a81548160ff0219169083151502179055505050505050565b611b4682610c96565b611b5781611b52612000565b612008565b611b618383612185565b505050565b7fd10feaa7fea55567e367a112bc53907318a50949442dfc0570945570c5af57cf81565b600081600115156005600083815260200190815260200160002060000160009054906101000a900460ff16151514611bc157600080fd5b600015156005600083815260200190815260200160002060080160009054906101000a900460ff16151514611bf557600080fd5b6000600560008581526020019081526020016000209050611d0481604051806101400160405290816000820160009054906101000a900460ff161515151581526020016000820160019054906101000a900473ffffffffffffffffffffffffffffffffffffffff1673ffffffffffffffffffffffffffffffffffffffff1673ffffffffffffffffffffffffffffffffffffffff168152602001600182015481526020016002820154815260200160038201548152602001600482015481526020016005820160009054906101000a900460ff1615151515815260200160068201548152602001600782015481526020016008820160009054906101000a900460ff161515151581525050612319565b92505050919050565b611d15612000565b73ffffffffffffffffffffffffffffffffffffffff16611d33611631565b73ffffffffffffffffffffffffffffffffffffffff1614611d89576040517f08c379a0000000000000000000000000000000000000000000000000000000008152600401611d8090613537565b60405180910390fd5b600073ffffffffffffffffffffffffffffffffffffffff168173ffffffffffffffffffffffffffffffffffffffff161415611df9576040517f08c379a0000000000000000000000000000000000000000000000000000000008152600401611df090613477565b60405180910390fd5b611e0281612409565b50565b611e0d612a5a565b611e1f611e1a84846115fe565b611784565b905092915050565b6000611e7282600760008573ffffffffffffffffffffffffffffffffffffffff1673ffffffffffffffffffffffffffffffffffffffff168152602001908152602001600020546115fe565b9050919050565b6000611e83610792565b8210611ec4576040517f08c379a0000000000000000000000000000000000000000000000000000000008152600401611ebb90613577565b60405180910390fd5b60048281548110611efe577f4e487b7100000000000000000000000000000000000000000000000000000000600052603260045260246000fd5b90600052602060002001549050919050565b60007f01ffc9a7000000000000000000000000000000000000000000000000000000007bffffffffffffffffffffffffffffffffffffffffffffffffffffffff1916827bffffffffffffffffffffffffffffffffffffffffffffffffffffffff1916149050919050565b611ffb8363a9059cbb60e01b8484604051602401611f999291906133b6565b604051602081830303815290604052907bffffffffffffffffffffffffffffffffffffffffffffffffffffffff19166020820180517bffffffffffffffffffffffffffffffffffffffffffffffffffffffff83818316178352505050506124cd565b505050565b600033905090565b6120128282611719565b6120a1576120378173ffffffffffffffffffffffffffffffffffffffff166014612594565b6120458360001c6020612594565b604051602001612056929190613361565b6040516020818303038152906040526040517f08c379a00000000000000000000000000000000000000000000000000000000081526004016120989190613415565b60405180910390fd5b5050565b6120af8282611719565b61218157600180600084815260200190815260200160002060000160008373ffffffffffffffffffffffffffffffffffffffff1673ffffffffffffffffffffffffffffffffffffffff16815260200190815260200160002060006101000a81548160ff021916908315150217905550612126612000565b73ffffffffffffffffffffffffffffffffffffffff168173ffffffffffffffffffffffffffffffffffffffff16837f2f8788117e7eff1d82e926ec794901d17c78024a50270940304540a733656f0d60405160405180910390a45b5050565b61218f8282611719565b156122635760006001600084815260200190815260200160002060000160008373ffffffffffffffffffffffffffffffffffffffff1673ffffffffffffffffffffffffffffffffffffffff16815260200190815260200160002060006101000a81548160ff021916908315150217905550612208612000565b73ffffffffffffffffffffffffffffffffffffffff168173ffffffffffffffffffffffffffffffffffffffff16837ff6391f5c32d9c69d2a47ea670b442974b53935d1edc7fd64eb21e047a839171b60405160405180910390a45b5050565b60006122723061288e565b15905090565b600360019054906101000a900460ff166122c7576040517f08c379a00000000000000000000000000000000000000000000000000000000081526004016122be90613617565b60405180910390fd5b81600360026101000a81548173ffffffffffffffffffffffffffffffffffffffff021916908373ffffffffffffffffffffffffffffffffffffffff1602179055506123156000801b826128b1565b5050565b6000806123246128bf565b905082604001518110806123415750600115158361012001511515145b15612350576000915050612404565b82608001518360600151612364919061372b565b8110612387578261010001518360e0015161237f919061380c565b915050612404565b6000836060015182612399919061380c565b905060008460a001519050600081836123b29190613781565b9050600082826123c291906137b2565b905060008760800151828960e001516123db91906137b2565b6123e59190613781565b9050876101000151816123f8919061380c565b90508096505050505050505b919050565b60008060009054906101000a900473ffffffffffffffffffffffffffffffffffffffff169050816000806101000a81548173ffffffffffffffffffffffffffffffffffffffff021916908373ffffffffffffffffffffffffffffffffffffffff1602179055508173ffffffffffffffffffffffffffffffffffffffff168173ffffffffffffffffffffffffffffffffffffffff167f8be0079c531659141344cd1fd0a4f28419497f9722a3daafe3b4186f6b6457e060405160405180910390a35050565b600061252f826040518060400160405280602081526020017f5361666545524332303a206c6f772d6c6576656c2063616c6c206661696c65648152508573ffffffffffffffffffffffffffffffffffffffff166128c79092919063ffffffff16565b905060008151111561258f578080602001905181019061254f9190612cb0565b61258e576040517f08c379a000000000000000000000000000000000000000000000000000000000815260040161258590613637565b60405180910390fd5b5b505050565b6060600060028360026125a791906137b2565b6125b1919061372b565b67ffffffffffffffff8111156125f0577f4e487b7100000000000000000000000000000000000000000000000000000000600052604160045260246000fd5b6040519080825280601f01601f1916602001820160405280156126225781602001600182028036833780820191505090505b5090507f300000000000000000000000000000000000000000000000000000000000000081600081518110612680577f4e487b7100000000000000000000000000000000000000000000000000000000600052603260045260246000fd5b60200101907effffffffffffffffffffffffffffffffffffffffffffffffffffffffffffff1916908160001a9053507f78000000000000000000000000000000000000000000000000000000000000008160018151811061270a577f4e487b7100000000000000000000000000000000000000000000000000000000600052603260045260246000fd5b60200101907effffffffffffffffffffffffffffffffffffffffffffffffffffffffffffff1916908160001a9053506000600184600261274a91906137b2565b612754919061372b565b90505b6001811115612840577f3031323334353637383961626364656600000000000000000000000000000000600f8616601081106127bc577f4e487b7100000000000000000000000000000000000000000000000000000000600052603260045260246000fd5b1a60f81b8282815181106127f9577f4e487b7100000000000000000000000000000000000000000000000000000000600052603260045260246000fd5b60200101907effffffffffffffffffffffffffffffffffffffffffffffffffffffffffffff1916908160001a905350600485901c945080612839906138f1565b9050612757565b5060008414612884576040517f08c379a000000000000000000000000000000000000000000000000000000000815260040161287b90613437565b60405180910390fd5b8091505092915050565b6000808273ffffffffffffffffffffffffffffffffffffffff163b119050919050565b6128bb82826120a5565b5050565b600042905090565b60606128d684846000856128df565b90509392505050565b606082471015612924576040517f08c379a000000000000000000000000000000000000000000000000000000000815260040161291b906134d7565b60405180910390fd5b61292d8561288e565b61296c576040517f08c379a0000000000000000000000000000000000000000000000000000000008152600401612963906135b7565b60405180910390fd5b6000808673ffffffffffffffffffffffffffffffffffffffff168587604051612995919061334a565b60006040518083038185875af1925050503d80600081146129d2576040519150601f19603f3d011682016040523d82523d6000602084013e6129d7565b606091505b50915091506129e78282866129f3565b92505050949350505050565b60608315612a0357829050612a53565b600083511115612a165782518084602001fd5b816040517f08c379a0000000000000000000000000000000000000000000000000000000008152600401612a4a9190613415565b60405180910390fd5b9392505050565b604051806101400160405280600015158152602001600073ffffffffffffffffffffffffffffffffffffffff1681526020016000815260200160008152602001600081526020016000815260200160001515815260200160008152602001600081526020016000151581525090565b600081359050612ad881613fab565b92915050565b600081359050612aed81613fc2565b92915050565b600081519050612b0281613fc2565b92915050565b600081359050612b1781613fd9565b92915050565b600081519050612b2c81613fd9565b92915050565b600081359050612b4181613ff0565b92915050565b600081359050612b5681614007565b92915050565b600081519050612b6b81614007565b92915050565b600060208284031215612b8357600080fd5b6000612b9184828501612ac9565b91505092915050565b60008060408385031215612bad57600080fd5b6000612bbb85828601612ac9565b9250506020612bcc85828601612ac9565b9150509250929050565b60008060408385031215612be957600080fd5b6000612bf785828601612ac9565b9250506020612c0885828601612b47565b9150509250929050565b600080600080600080600060e0888a031215612c2d57600080fd5b6000612c3b8a828b01612ac9565b9750506020612c4c8a828b01612b47565b9650506040612c5d8a828b01612b47565b9550506060612c6e8a828b01612b47565b9450506080612c7f8a828b01612b47565b93505060a0612c908a828b01612ade565b92505060c0612ca18a828b01612b47565b91505092959891949750929550565b600060208284031215612cc257600080fd5b6000612cd084828501612af3565b91505092915050565b600060208284031215612ceb57600080fd5b6000612cf984828501612b08565b91505092915050565b600060208284031215612d1457600080fd5b6000612d2284828501612b1d565b91505092915050565b60008060408385031215612d3e57600080fd5b6000612d4c85828601612b08565b9250506020612d5d85828601612ac9565b9150509250929050565b60008060408385031215612d7a57600080fd5b6000612d8885828601612b08565b9250506020612d9985828601612b47565b9150509250929050565b600060208284031215612db557600080fd5b6000612dc384828501612b32565b91505092915050565b600060208284031215612dde57600080fd5b6000612dec84828501612b47565b91505092915050565b600060208284031215612e0757600080fd5b6000612e1584828501612b5c565b91505092915050565b612e2781613840565b82525050565b612e3681613840565b82525050565b612e4d612e4882613840565b61391b565b82525050565b612e5c81613852565b82525050565b612e6b81613852565b82525050565b612e7a8161385e565b82525050565b6000612e8b826136ee565b612e958185613704565b9350612ea58185602086016138be565b80840191505092915050565b6000612ebc826136f9565b612ec6818561370f565b9350612ed68185602086016138be565b612edf816139a7565b840191505092915050565b6000612ef5826136f9565b612eff8185613720565b9350612f0f8185602086016138be565b80840191505092915050565b6000612f2860208361370f565b9150612f33826139c5565b602082019050919050565b6000612f4b60178361370f565b9150612f56826139ee565b602082019050919050565b6000612f6e60268361370f565b9150612f7982613a17565b604082019050919050565b6000612f91602d8361370f565b9150612f9c82613a66565b604082019050919050565b6000612fb4603d8361370f565b9150612fbf82613ab5565b604082019050919050565b6000612fd760268361370f565b9150612fe282613b04565b604082019050919050565b6000612ffa60268361370f565b915061300582613b53565b604082019050919050565b600061301d602e8361370f565b915061302882613ba2565b604082019050919050565b600061304060208361370f565b915061304b82613bf1565b602082019050919050565b600061306360208361370f565b915061306e82613c1a565b602082019050919050565b600061308660218361370f565b915061309182613c43565b604082019050919050565b60006130a960228361370f565b91506130b482613c92565b604082019050919050565b60006130cc601d8361370f565b91506130d782613ce1565b602082019050919050565b60006130ef602b8361370f565b91506130fa82613d0a565b604082019050919050565b600061311260448361370f565b915061311d82613d59565b606082019050919050565b6000613135602b8361370f565b915061314082613dce565b604082019050919050565b6000613158601783613720565b915061316382613e1d565b601782019050919050565b600061317b602a8361370f565b915061318682613e46565b604082019050919050565b600061319e604a8361370f565b91506131a982613e95565b606082019050919050565b60006131c1601f8361370f565b91506131cc82613f0a565b602082019050919050565b60006131e4601183613720565b91506131ef82613f33565b601182019050919050565b6000613207602f8361370f565b915061321282613f5c565b604082019050919050565b610140820160008201516132346000850182612e53565b5060208201516132476020850182612e1e565b50604082015161325a60408501826132e9565b50606082015161326d60608501826132e9565b50608082015161328060808501826132e9565b5060a082015161329360a08501826132e9565b5060c08201516132a660c0850182612e53565b5060e08201516132b960e08501826132e9565b506101008201516132ce6101008501826132e9565b506101208201516132e3610120850182612e53565b50505050565b6132f2816138b4565b82525050565b613301816138b4565b82525050565b613318613313826138b4565b61393f565b82525050565b600061332a8285612e3c565b60148201915061333a8284613307565b6020820191508190509392505050565b60006133568284612e80565b915081905092915050565b600061336c8261314b565b91506133788285612eea565b9150613383826131d7565b915061338f8284612eea565b91508190509392505050565b60006020820190506133b06000830184612e2d565b92915050565b60006040820190506133cb6000830185612e2d565b6133d860208301846132f8565b9392505050565b60006020820190506133f46000830184612e62565b92915050565b600060208201905061340f6000830184612e71565b92915050565b6000602082019050818103600083015261342f8184612eb1565b905092915050565b6000602082019050818103600083015261345081612f1b565b9050919050565b6000602082019050818103600083015261347081612f3e565b9050919050565b6000602082019050818103600083015261349081612f61565b9050919050565b600060208201905081810360008301526134b081612f84565b9050919050565b600060208201905081810360008301526134d081612fa7565b9050919050565b600060208201905081810360008301526134f081612fca565b9050919050565b6000602082019050818103600083015261351081612fed565b9050919050565b6000602082019050818103600083015261353081613010565b9050919050565b6000602082019050818103600083015261355081613033565b9050919050565b6000602082019050818103600083015261357081613056565b9050919050565b6000602082019050818103600083015261359081613079565b9050919050565b600060208201905081810360008301526135b08161309c565b9050919050565b600060208201905081810360008301526135d0816130bf565b9050919050565b600060208201905081810360008301526135f0816130e2565b9050919050565b6000602082019050818103600083015261361081613105565b9050919050565b6000602082019050818103600083015261363081613128565b9050919050565b600060208201905081810360008301526136508161316e565b9050919050565b6000602082019050818103600083015261367081613191565b9050919050565b60006020820190508181036000830152613690816131b4565b9050919050565b600060208201905081810360008301526136b0816131fa565b9050919050565b6000610140820190506136cd600083018461321d565b92915050565b60006020820190506136e860008301846132f8565b92915050565b600081519050919050565b600081519050919050565b600081905092915050565b600082825260208201905092915050565b600081905092915050565b6000613736826138b4565b9150613741836138b4565b9250827fffffffffffffffffffffffffffffffffffffffffffffffffffffffffffffffff0382111561377657613775613949565b5b828201905092915050565b600061378c826138b4565b9150613797836138b4565b9250826137a7576137a6613978565b5b828204905092915050565b60006137bd826138b4565b91506137c8836138b4565b9250817fffffffffffffffffffffffffffffffffffffffffffffffffffffffffffffffff048311821515161561380157613800613949565b5b828202905092915050565b6000613817826138b4565b9150613822836138b4565b92508282101561383557613834613949565b5b828203905092915050565b600061384b82613894565b9050919050565b60008115159050919050565b6000819050919050565b60007fffffffff0000000000000000000000000000000000000000000000000000000082169050919050565b600073ffffffffffffffffffffffffffffffffffffffff82169050919050565b6000819050919050565b60005b838110156138dc5780820151818401526020810190506138c1565b838111156138eb576000848401525b50505050565b60006138fc826138b4565b915060008214156139105761390f613949565b5b600182039050919050565b60006139268261392d565b9050919050565b6000613938826139b8565b9050919050565b6000819050919050565b7f4e487b7100000000000000000000000000000000000000000000000000000000600052601160045260246000fd5b7f4e487b7100000000000000000000000000000000000000000000000000000000600052601260045260246000fd5b6000601f19601f8301169050919050565b60008160601b9050919050565b7f537472696e67733a20686578206c656e67746820696e73756666696369656e74600082015250565b7f43616c6c6572206973206e6f742061204772616e746f72000000000000000000600082015250565b7f4f776e61626c653a206e6577206f776e657220697320746865207a65726f206160008201527f6464726573730000000000000000000000000000000000000000000000000000602082015250565b7f546f6b656e56657374696e673a20736c696365506572696f645365636f6e647360008201527f206d757374206265203e3d203100000000000000000000000000000000000000602082015250565b7f546f6b656e56657374696e673a2063616e6e6f742072656c6561736520746f6b60008201527f656e732c206e6f7420656e6f7567682076657374656420746f6b656e73000000602082015250565b7f416464726573733a20696e73756666696369656e742062616c616e636520666f60008201527f722063616c6c0000000000000000000000000000000000000000000000000000602082015250565b7f546f6b656e56657374696e673a2076657374696e67206973206e6f742072657660008201527f6f6361626c650000000000000000000000000000000000000000000000000000602082015250565b7f496e697469616c697a61626c653a20636f6e747261637420697320616c72656160008201527f647920696e697469616c697a6564000000000000000000000000000000000000602082015250565b7f4f776e61626c653a2063616c6c6572206973206e6f7420746865206f776e6572600082015250565b7f546f6b656e56657374696e673a20616d6f756e74206d757374206265203e2030600082015250565b7f546f6b656e56657374696e673a20696e646578206f7574206f6620626f756e6460008201527f7300000000000000000000000000000000000000000000000000000000000000602082015250565b7f546f6b656e56657374696e673a206475726174696f6e206d757374206265203e60008201527f2030000000000000000000000000000000000000000000000000000000000000602082015250565b7f416464726573733a2063616c6c20746f206e6f6e2d636f6e7472616374000000600082015250565b7f546f6b656e56657374696e673a206e6f7420656e6f756768207769746864726160008201527f7761626c652066756e6473000000000000000000000000000000000000000000602082015250565b7f546f6b656e56657374696e673a206f6e6c792062656e6566696369617279206160008201527f6e64206772616e746f722063616e2072656c656173652076657374656420746f60208201527f6b656e7300000000000000000000000000000000000000000000000000000000604082015250565b7f496e697469616c697a61626c653a20636f6e7472616374206973206e6f74206960008201527f6e697469616c697a696e67000000000000000000000000000000000000000000602082015250565b7f416363657373436f6e74726f6c3a206163636f756e7420000000000000000000600082015250565b7f5361666545524332303a204552433230206f7065726174696f6e20646964206e60008201527f6f74207375636365656400000000000000000000000000000000000000000000602082015250565b7f546f6b656e56657374696e673a2063616e6e6f7420637265617465207665737460008201527f696e67207363686564756c652062656361757365206e6f74207375666669636960208201527f656e7420746f6b656e7300000000000000000000000000000000000000000000604082015250565b7f5265656e7472616e637947756172643a207265656e7472616e742063616c6c00600082015250565b7f206973206d697373696e6720726f6c6520000000000000000000000000000000600082015250565b7f416363657373436f6e74726f6c3a2063616e206f6e6c792072656e6f756e636560008201527f20726f6c657320666f722073656c660000000000000000000000000000000000602082015250565b613fb481613840565b8114613fbf57600080fd5b50565b613fcb81613852565b8114613fd657600080fd5b50565b613fe28161385e565b8114613fed57600080fd5b50565b613ff981613868565b811461400457600080fd5b50565b614010816138b4565b811461401b57600080fd5b5056fea2646970667358221220087e5913a78b08f160c99af3214b7aedfaddb3f0843f6f1b4d657ee1ebe6e68264736f6c63430008020033",
  "linkReferences": {},
  "deployedLinkReferences": {}
}