{
  "_format": "hh-sol-artifact-1",
  "contractName": "TokenVesting",
  "sourceName": "contracts/TokenVesting.sol",
  "abi": [
    {
      "anonymous": false,
      "inputs": [
        {
          "indexed": true,
          "internalType": "address",
          "name": "previousOwner",
          "type": "address"
        },
        {
          "indexed": true,
          "internalType": "address",
          "name": "newOwner",
          "type": "address"
        }
      ],
      "name": "OwnershipTransferred",
      "type": "event"
    },
    {
      "anonymous": false,
      "inputs": [
        {
          "indexed": false,
          "internalType": "uint256",
          "name": "amount",
          "type": "uint256"
        }
      ],
      "name": "Released",
      "type": "event"
    },
    {
      "anonymous": false,
      "inputs": [],
      "name": "Revoked",
      "type": "event"
    },
    {
      "anonymous": false,
      "inputs": [
        {
          "indexed": true,
          "internalType": "bytes32",
          "name": "role",
          "type": "bytes32"
        },
        {
          "indexed": true,
          "internalType": "bytes32",
          "name": "previousAdminRole",
          "type": "bytes32"
        },
        {
          "indexed": true,
          "internalType": "bytes32",
          "name": "newAdminRole",
          "type": "bytes32"
        }
      ],
      "name": "RoleAdminChanged",
      "type": "event"
    },
    {
      "anonymous": false,
      "inputs": [
        {
          "indexed": true,
          "internalType": "bytes32",
          "name": "role",
          "type": "bytes32"
        },
        {
          "indexed": true,
          "internalType": "address",
          "name": "account",
          "type": "address"
        },
        {
          "indexed": true,
          "internalType": "address",
          "name": "sender",
          "type": "address"
        }
      ],
      "name": "RoleGranted",
      "type": "event"
    },
    {
      "anonymous": false,
      "inputs": [
        {
          "indexed": true,
          "internalType": "bytes32",
          "name": "role",
          "type": "bytes32"
        },
        {
          "indexed": true,
          "internalType": "address",
          "name": "account",
          "type": "address"
        },
        {
          "indexed": true,
          "internalType": "address",
          "name": "sender",
          "type": "address"
        }
      ],
      "name": "RoleRevoked",
      "type": "event"
    },
    {
      "stateMutability": "payable",
      "type": "fallback"
    },
    {
      "inputs": [],
      "name": "DEFAULT_ADMIN_ROLE",
      "outputs": [
        {
          "internalType": "bytes32",
          "name": "",
          "type": "bytes32"
        }
      ],
      "stateMutability": "view",
      "type": "function"
    },
    {
      "inputs": [],
      "name": "GRANTOR_ROLE",
      "outputs": [
        {
          "internalType": "bytes32",
          "name": "",
          "type": "bytes32"
        }
      ],
      "stateMutability": "view",
      "type": "function"
    },
    {
      "inputs": [
        {
          "internalType": "address",
          "name": "holder",
          "type": "address"
        }
      ],
      "name": "computeNextVestingScheduleIdForHolder",
      "outputs": [
        {
          "internalType": "bytes32",
          "name": "",
          "type": "bytes32"
        }
      ],
      "stateMutability": "view",
      "type": "function"
    },
    {
      "inputs": [
        {
          "internalType": "bytes32",
          "name": "vestingScheduleId",
          "type": "bytes32"
        }
      ],
      "name": "computeReleasableAmount",
      "outputs": [
        {
          "internalType": "uint256",
          "name": "",
          "type": "uint256"
        }
      ],
      "stateMutability": "view",
      "type": "function"
    },
    {
      "inputs": [
        {
          "internalType": "address",
          "name": "holder",
          "type": "address"
        },
        {
          "internalType": "uint256",
          "name": "index",
          "type": "uint256"
        }
      ],
      "name": "computeVestingScheduleIdForAddressAndIndex",
      "outputs": [
        {
          "internalType": "bytes32",
          "name": "",
          "type": "bytes32"
        }
      ],
      "stateMutability": "pure",
      "type": "function"
    },
    {
      "inputs": [
        {
          "internalType": "address",
          "name": "_beneficiary",
          "type": "address"
        },
        {
          "internalType": "uint256",
          "name": "_start",
          "type": "uint256"
        },
        {
          "internalType": "uint256",
          "name": "_cliff",
          "type": "uint256"
        },
        {
          "internalType": "uint256",
          "name": "_duration",
          "type": "uint256"
        },
        {
          "internalType": "uint256",
          "name": "_slicePeriodSeconds",
          "type": "uint256"
        },
        {
          "internalType": "bool",
          "name": "_revocable",
          "type": "bool"
        },
        {
          "internalType": "uint256",
          "name": "_amount",
          "type": "uint256"
        }
      ],
      "name": "createVestingSchedule",
      "outputs": [],
      "stateMutability": "nonpayable",
      "type": "function"
    },
    {
      "inputs": [
        {
          "internalType": "address",
          "name": "holder",
          "type": "address"
        }
      ],
      "name": "getLastVestingScheduleForHolder",
      "outputs": [
        {
          "components": [
            {
              "internalType": "bool",
              "name": "initialized",
              "type": "bool"
            },
            {
              "internalType": "address",
              "name": "beneficiary",
              "type": "address"
            },
            {
              "internalType": "uint256",
              "name": "cliff",
              "type": "uint256"
            },
            {
              "internalType": "uint256",
              "name": "start",
              "type": "uint256"
            },
            {
              "internalType": "uint256",
              "name": "duration",
              "type": "uint256"
            },
            {
              "internalType": "uint256",
              "name": "slicePeriodSeconds",
              "type": "uint256"
            },
            {
              "internalType": "bool",
              "name": "revocable",
              "type": "bool"
            },
            {
              "internalType": "uint256",
              "name": "amountTotal",
              "type": "uint256"
            },
            {
              "internalType": "uint256",
              "name": "released",
              "type": "uint256"
            },
            {
              "internalType": "bool",
              "name": "revoked",
              "type": "bool"
            }
          ],
          "internalType": "struct TokenVesting.VestingSchedule",
          "name": "",
          "type": "tuple"
        }
      ],
      "stateMutability": "view",
      "type": "function"
    },
    {
      "inputs": [
        {
          "internalType": "bytes32",
          "name": "role",
          "type": "bytes32"
        }
      ],
      "name": "getRoleAdmin",
      "outputs": [
        {
          "internalType": "bytes32",
          "name": "",
          "type": "bytes32"
        }
      ],
      "stateMutability": "view",
      "type": "function"
    },
    {
      "inputs": [],
      "name": "getToken",
      "outputs": [
        {
          "internalType": "address",
          "name": "",
          "type": "address"
        }
      ],
      "stateMutability": "view",
      "type": "function"
    },
    {
      "inputs": [
        {
          "internalType": "uint256",
          "name": "index",
          "type": "uint256"
        }
      ],
      "name": "getVestingIdAtIndex",
      "outputs": [
        {
          "internalType": "bytes32",
          "name": "",
          "type": "bytes32"
        }
      ],
      "stateMutability": "view",
      "type": "function"
    },
    {
      "inputs": [
        {
          "internalType": "bytes32",
          "name": "vestingScheduleId",
          "type": "bytes32"
        }
      ],
      "name": "getVestingSchedule",
      "outputs": [
        {
          "components": [
            {
              "internalType": "bool",
              "name": "initialized",
              "type": "bool"
            },
            {
              "internalType": "address",
              "name": "beneficiary",
              "type": "address"
            },
            {
              "internalType": "uint256",
              "name": "cliff",
              "type": "uint256"
            },
            {
              "internalType": "uint256",
              "name": "start",
              "type": "uint256"
            },
            {
              "internalType": "uint256",
              "name": "duration",
              "type": "uint256"
            },
            {
              "internalType": "uint256",
              "name": "slicePeriodSeconds",
              "type": "uint256"
            },
            {
              "internalType": "bool",
              "name": "revocable",
              "type": "bool"
            },
            {
              "internalType": "uint256",
              "name": "amountTotal",
              "type": "uint256"
            },
            {
              "internalType": "uint256",
              "name": "released",
              "type": "uint256"
            },
            {
              "internalType": "bool",
              "name": "revoked",
              "type": "bool"
            }
          ],
          "internalType": "struct TokenVesting.VestingSchedule",
          "name": "",
          "type": "tuple"
        }
      ],
      "stateMutability": "view",
      "type": "function"
    },
    {
      "inputs": [
        {
          "internalType": "address",
          "name": "holder",
          "type": "address"
        },
        {
          "internalType": "uint256",
          "name": "index",
          "type": "uint256"
        }
      ],
      "name": "getVestingScheduleByAddressAndIndex",
      "outputs": [
        {
          "components": [
            {
              "internalType": "bool",
              "name": "initialized",
              "type": "bool"
            },
            {
              "internalType": "address",
              "name": "beneficiary",
              "type": "address"
            },
            {
              "internalType": "uint256",
              "name": "cliff",
              "type": "uint256"
            },
            {
              "internalType": "uint256",
              "name": "start",
              "type": "uint256"
            },
            {
              "internalType": "uint256",
              "name": "duration",
              "type": "uint256"
            },
            {
              "internalType": "uint256",
              "name": "slicePeriodSeconds",
              "type": "uint256"
            },
            {
              "internalType": "bool",
              "name": "revocable",
              "type": "bool"
            },
            {
              "internalType": "uint256",
              "name": "amountTotal",
              "type": "uint256"
            },
            {
              "internalType": "uint256",
              "name": "released",
              "type": "uint256"
            },
            {
              "internalType": "bool",
              "name": "revoked",
              "type": "bool"
            }
          ],
          "internalType": "struct TokenVesting.VestingSchedule",
          "name": "",
          "type": "tuple"
        }
      ],
      "stateMutability": "view",
      "type": "function"
    },
    {
      "inputs": [],
      "name": "getVestingSchedulesCount",
      "outputs": [
        {
          "internalType": "uint256",
          "name": "",
          "type": "uint256"
        }
      ],
      "stateMutability": "view",
      "type": "function"
    },
    {
      "inputs": [
        {
          "internalType": "address",
          "name": "_beneficiary",
          "type": "address"
        }
      ],
      "name": "getVestingSchedulesCountByBeneficiary",
      "outputs": [
        {
          "internalType": "uint256",
          "name": "",
          "type": "uint256"
        }
      ],
      "stateMutability": "view",
      "type": "function"
    },
    {
      "inputs": [],
      "name": "getVestingSchedulesTotalAmount",
      "outputs": [
        {
          "internalType": "uint256",
          "name": "",
          "type": "uint256"
        }
      ],
      "stateMutability": "view",
      "type": "function"
    },
    {
      "inputs": [],
      "name": "getWithdrawableAmount",
      "outputs": [
        {
          "internalType": "uint256",
          "name": "",
          "type": "uint256"
        }
      ],
      "stateMutability": "view",
      "type": "function"
    },
    {
      "inputs": [
        {
          "internalType": "bytes32",
          "name": "role",
          "type": "bytes32"
        },
        {
          "internalType": "address",
          "name": "account",
          "type": "address"
        }
      ],
      "name": "grantRole",
      "outputs": [],
      "stateMutability": "nonpayable",
      "type": "function"
    },
    {
      "inputs": [
        {
          "internalType": "bytes32",
          "name": "role",
          "type": "bytes32"
        },
        {
          "internalType": "address",
          "name": "account",
          "type": "address"
        }
      ],
      "name": "hasRole",
      "outputs": [
        {
          "internalType": "bool",
          "name": "",
          "type": "bool"
        }
      ],
      "stateMutability": "view",
      "type": "function"
    },
    {
      "inputs": [
        {
          "internalType": "address",
          "name": "token_",
          "type": "address"
        },
        {
          "internalType": "address",
          "name": "owner_",
          "type": "address"
        }
      ],
      "name": "initialize",
      "outputs": [],
      "stateMutability": "nonpayable",
      "type": "function"
    },
    {
      "inputs": [],
      "name": "owner",
      "outputs": [
        {
          "internalType": "address",
          "name": "",
          "type": "address"
        }
      ],
      "stateMutability": "view",
      "type": "function"
    },
    {
      "inputs": [
        {
          "internalType": "bytes32",
          "name": "vestingScheduleId",
          "type": "bytes32"
        },
        {
          "internalType": "uint256",
          "name": "amount",
          "type": "uint256"
        }
      ],
      "name": "release",
      "outputs": [],
      "stateMutability": "nonpayable",
      "type": "function"
    },
    {
      "inputs": [],
      "name": "renounceOwnership",
      "outputs": [],
      "stateMutability": "nonpayable",
      "type": "function"
    },
    {
      "inputs": [
        {
          "internalType": "bytes32",
          "name": "role",
          "type": "bytes32"
        },
        {
          "internalType": "address",
          "name": "account",
          "type": "address"
        }
      ],
      "name": "renounceRole",
      "outputs": [],
      "stateMutability": "nonpayable",
      "type": "function"
    },
    {
      "inputs": [
        {
          "internalType": "bytes32",
          "name": "vestingScheduleId",
          "type": "bytes32"
        }
      ],
      "name": "revoke",
      "outputs": [],
      "stateMutability": "nonpayable",
      "type": "function"
    },
    {
      "inputs": [
        {
          "internalType": "bytes32",
          "name": "role",
          "type": "bytes32"
        },
        {
          "internalType": "address",
          "name": "account",
          "type": "address"
        }
      ],
      "name": "revokeRole",
      "outputs": [],
      "stateMutability": "nonpayable",
      "type": "function"
    },
    {
      "inputs": [
        {
          "internalType": "bytes4",
          "name": "interfaceId",
          "type": "bytes4"
        }
      ],
      "name": "supportsInterface",
      "outputs": [
        {
          "internalType": "bool",
          "name": "",
          "type": "bool"
        }
      ],
      "stateMutability": "view",
      "type": "function"
    },
    {
      "inputs": [
        {
          "internalType": "address",
          "name": "newOwner",
          "type": "address"
        }
      ],
      "name": "transferOwnership",
      "outputs": [],
      "stateMutability": "nonpayable",
      "type": "function"
    },
    {
      "inputs": [
        {
          "internalType": "uint256",
          "name": "amount",
          "type": "uint256"
        }
      ],
      "name": "withdraw",
      "outputs": [],
      "stateMutability": "nonpayable",
      "type": "function"
    },
    {
      "stateMutability": "payable",
      "type": "receive"
    }
  ],
  "bytecode": "0x60806040523480156200001157600080fd5b5062000032620000266200004060201b60201c565b6200004860201b60201c565b60016002819055506200010c565b600033905090565b60008060009054906101000a900473ffffffffffffffffffffffffffffffffffffffff169050816000806101000a81548173ffffffffffffffffffffffffffffffffffffffff021916908373ffffffffffffffffffffffffffffffffffffffff1602179055508173ffffffffffffffffffffffffffffffffffffffff168173ffffffffffffffffffffffffffffffffffffffff167f8be0079c531659141344cd1fd0a4f28419497f9722a3daafe3b4186f6b6457e060405160405180910390a35050565b61407e806200011c6000396000f3fe6080604052600436106101bb5760003560e01c80638af104da116100ec578063d547741f1161008a578063f2fde38b11610064578063f2fde38b14610638578063f51321d714610661578063f7c469f01461069e578063f9079b37146106db576101c2565b8063d547741f146105a7578063e15fb83f146105d0578063ea1bb3d5146105fb576101c2565b806391d14854116100c657806391d14854146104d95780639ef346b414610516578063a217fddf14610553578063b75c7dc61461057e576101c2565b80638af104da146104465780638da5cb5b1461048357806390be10cc146104ae576101c2565b806336568abe116101595780635a7bb69a116101335780635a7bb69a1461038c57806366afd8ef146103c9578063715018a6146103f25780637e913dc614610409576101c2565b806336568abe1461030f578063485cc9551461033857806348deb47114610361576101c2565b806321df0da71161019557806321df0da714610255578063248a9ca3146102805780632e1a7d4d146102bd5780632f2ff15d146102e6576101c2565b806301ffc9a7146101c4578063130836171461020157806317e289e91461022c576101c2565b366101c257005b005b3480156101d057600080fd5b506101eb60048036038101906101e69190612dcd565b610718565b6040516101f89190613409565b60405180910390f35b34801561020d57600080fd5b50610216610792565b60405161022391906136fd565b60405180910390f35b34801561023857600080fd5b50610253600480360381019061024e9190612c3c565b61079f565b005b34801561026157600080fd5b5061026a610c6c565b60405161027791906133c5565b60405180910390f35b34801561028c57600080fd5b506102a760048036038101906102a29190612d03565b610c96565b6040516102b49190613424565b60405180910390f35b3480156102c957600080fd5b506102e460048036038101906102df9190612df6565b610cb6565b005b3480156102f257600080fd5b5061030d60048036038101906103089190612d55565b610e83565b005b34801561031b57600080fd5b5061033660048036038101906103319190612d55565b610eac565b005b34801561034457600080fd5b5061035f600480360381019061035a9190612bc4565b610f2f565b005b34801561036d57600080fd5b50610376611024565b60405161038391906136fd565b60405180910390f35b34801561039857600080fd5b506103b360048036038101906103ae9190612b9b565b61102e565b6040516103c091906136fd565b60405180910390f35b3480156103d557600080fd5b506103f060048036038101906103eb9190612d91565b611077565b005b3480156103fe57600080fd5b50610407611411565b005b34801561041557600080fd5b50610430600480360381019061042b9190612b9b565b611499565b60405161043d91906136e1565b60405180910390f35b34801561045257600080fd5b5061046d60048036038101906104689190612c00565b6115fe565b60405161047a9190613424565b60405180910390f35b34801561048f57600080fd5b50610498611631565b6040516104a591906133c5565b60405180910390f35b3480156104ba57600080fd5b506104c361165a565b6040516104d091906136fd565b60405180910390f35b3480156104e557600080fd5b5061050060048036038101906104fb9190612d55565b611719565b60405161050d9190613409565b60405180910390f35b34801561052257600080fd5b5061053d60048036038101906105389190612d03565b611784565b60405161054a91906136e1565b60405180910390f35b34801561055f57600080fd5b50610568611895565b6040516105759190613424565b60405180910390f35b34801561058a57600080fd5b506105a560048036038101906105a09190612d03565b61189c565b005b3480156105b357600080fd5b506105ce60048036038101906105c99190612d55565b611b3d565b005b3480156105dc57600080fd5b506105e5611b66565b6040516105f29190613424565b60405180910390f35b34801561060757600080fd5b50610622600480360381019061061d9190612d03565b611b8a565b60405161062f91906136fd565b60405180910390f35b34801561064457600080fd5b5061065f600480360381019061065a9190612b9b565b611d0d565b005b34801561066d57600080fd5b5061068860048036038101906106839190612c00565b611e05565b60405161069591906136e1565b60405180910390f35b3480156106aa57600080fd5b506106c560048036038101906106c09190612b9b565b611e27565b6040516106d29190613424565b60405180910390f35b3480156106e757600080fd5b5061070260048036038101906106fd9190612df6565b611e79565b60405161070f9190613424565b60405180910390f35b60007f7965db0b000000000000000000000000000000000000000000000000000000007bffffffffffffffffffffffffffffffffffffffffffffffffffffffff1916827bffffffffffffffffffffffffffffffffffffffffffffffffffffffff1916148061078b575061078a82611f10565b5b9050919050565b6000600480549050905090565b6107c97fd10feaa7fea55567e367a112bc53907318a50949442dfc0570945570c5af57cf33611719565b610808576040517f08c379a00000000000000000000000000000000000000000000000000000000081526004016107ff90613481565b60405180910390fd5b803073ffffffffffffffffffffffffffffffffffffffff166390be10cc6040518163ffffffff1660e01b815260040160206040518083038186803b15801561084f57600080fd5b505afa158015610863573d6000803e3d6000fd5b505050506040513d601f19601f820116820180604052508101906108879190612e1f565b10156108c8576040517f08c379a00000000000000000000000000000000000000000000000000000000081526004016108bf90613681565b60405180910390fd5b6000841161090b576040517f08c379a0000000000000000000000000000000000000000000000000000000008152600401610902906135c1565b60405180910390fd5b6000811161094e576040517f08c379a000000000000000000000000000000000000000000000000000000000815260040161094590613581565b60405180910390fd5b6001831015610992576040517f08c379a0000000000000000000000000000000000000000000000000000000008152600401610989906134c1565b60405180910390fd5b60003073ffffffffffffffffffffffffffffffffffffffff1663f7c469f0896040518263ffffffff1660e01b81526004016109cd91906133c5565b60206040518083038186803b1580156109e557600080fd5b505afa1580156109f9573d6000803e3d6000fd5b505050506040513d601f19601f82011682018060405250810190610a1d9190612d2c565b905060008688610a2d9190613755565b90506040518061014001604052806001151581526020018a73ffffffffffffffffffffffffffffffffffffffff168152602001828152602001898152602001878152602001868152602001851515815260200184815260200160008152602001600015158152506005600084815260200190815260200160002060008201518160000160006101000a81548160ff02191690831515021790555060208201518160000160016101000a81548173ffffffffffffffffffffffffffffffffffffffff021916908373ffffffffffffffffffffffffffffffffffffffff16021790555060408201518160010155606082015181600201556080820151816003015560a0820151816004015560c08201518160050160006101000a81548160ff02191690831515021790555060e0820151816006015561010082015181600701556101208201518160080160006101000a81548160ff02191690831515021790555090505082600654610b9d9190613755565b60068190555060048290806001815401808255809150506001900390600052602060002001600090919091909150556000600760008b73ffffffffffffffffffffffffffffffffffffffff1673ffffffffffffffffffffffffffffffffffffffff168152602001908152602001600020549050600181610c1d9190613755565b600760008c73ffffffffffffffffffffffffffffffffffffffff1673ffffffffffffffffffffffffffffffffffffffff1681526020019081526020016000208190555050505050505050505050565b6000600360029054906101000a900473ffffffffffffffffffffffffffffffffffffffff16905090565b600060016000838152602001908152602001600020600101549050919050565b610ce07fd10feaa7fea55567e367a112bc53907318a50949442dfc0570945570c5af57cf33611719565b610d1f576040517f08c379a0000000000000000000000000000000000000000000000000000000008152600401610d1690613481565b60405180910390fd5b600280541415610d64576040517f08c379a0000000000000000000000000000000000000000000000000000000008152600401610d5b906136a1565b60405180910390fd5b60028081905550803073ffffffffffffffffffffffffffffffffffffffff166390be10cc6040518163ffffffff1660e01b815260040160206040518083038186803b158015610db257600080fd5b505afa158015610dc6573d6000803e3d6000fd5b505050506040513d601f19601f82011682018060405250810190610dea9190612e1f565b1015610e2b576040517f08c379a0000000000000000000000000000000000000000000000000000000008152600401610e2290613601565b60405180910390fd5b610e783382600360029054906101000a900473ffffffffffffffffffffffffffffffffffffffff1673ffffffffffffffffffffffffffffffffffffffff16611f7a9092919063ffffffff16565b600160028190555050565b610e8c82610c96565b610e9d81610e98612000565b612008565b610ea783836120a5565b505050565b610eb4612000565b73ffffffffffffffffffffffffffffffffffffffff168173ffffffffffffffffffffffffffffffffffffffff1614610f21576040517f08c379a0000000000000000000000000000000000000000000000000000000008152600401610f18906136c1565b60405180910390fd5b610f2b8282612185565b5050565b600360019054906101000a900460ff16610f5957600360009054906101000a900460ff1615610f62565b610f61612267565b5b610fa1576040517f08c379a0000000000000000000000000000000000000000000000000000000008152600401610f9890613541565b60405180910390fd5b6000600360019054906101000a900460ff161590508015610ff3576001600360016101000a81548160ff0219169083151502179055506001600360006101000a81548160ff0219169083151502179055505b610ffd8383612278565b801561101f576000600360016101000a81548160ff0219169083151502179055505b505050565b6000600654905090565b6000600760008373ffffffffffffffffffffffffffffffffffffffff1673ffffffffffffffffffffffffffffffffffffffff168152602001908152602001600020549050919050565b6002805414156110bc576040517f08c379a00000000000000000000000000000000000000000000000000000000081526004016110b3906136a1565b60405180910390fd5b6002808190555081600115156005600083815260200190815260200160002060000160009054906101000a900460ff161515146110f857600080fd5b600015156005600083815260200190815260200160002060080160009054906101000a900460ff1615151461112c57600080fd5b600060056000858152602001908152602001600020905060008160000160019054906101000a900473ffffffffffffffffffffffffffffffffffffffff1673ffffffffffffffffffffffffffffffffffffffff16611188612000565b73ffffffffffffffffffffffffffffffffffffffff1614905060006111d47fd10feaa7fea55567e367a112bc53907318a50949442dfc0570945570c5af57cf6111cf612000565b611719565b905081806111df5750805b61121e576040517f08c379a000000000000000000000000000000000000000000000000000000000815260040161121590613621565b60405180910390fd5b600061131884604051806101400160405290816000820160009054906101000a900460ff161515151581526020016000820160019054906101000a900473ffffffffffffffffffffffffffffffffffffffff1673ffffffffffffffffffffffffffffffffffffffff1673ffffffffffffffffffffffffffffffffffffffff168152602001600182015481526020016002820154815260200160038201548152602001600482015481526020016005820160009054906101000a900460ff1615151515815260200160068201548152602001600782015481526020016008820160009054906101000a900460ff161515151581525050612343565b90508581101561135d576040517f08c379a0000000000000000000000000000000000000000000000000000000008152600401611354906134e1565b60405180910390fd5b85846007015461136d9190613755565b846007018190555060008460000160019054906101000a900473ffffffffffffffffffffffffffffffffffffffff169050866006546113ac9190613836565b6006819055506113ff8188600360029054906101000a900473ffffffffffffffffffffffffffffffffffffffff1673ffffffffffffffffffffffffffffffffffffffff16611f7a9092919063ffffffff16565b50505050505060016002819055505050565b611419612000565b73ffffffffffffffffffffffffffffffffffffffff16611437611631565b73ffffffffffffffffffffffffffffffffffffffff161461148d576040517f08c379a000000000000000000000000000000000000000000000000000000000815260040161148490613561565b60405180910390fd5b6114976000612433565b565b6114a1612a84565b600560006114fa846001600760008873ffffffffffffffffffffffffffffffffffffffff1673ffffffffffffffffffffffffffffffffffffffff168152602001908152602001600020546114f59190613836565b6115fe565b8152602001908152602001600020604051806101400160405290816000820160009054906101000a900460ff161515151581526020016000820160019054906101000a900473ffffffffffffffffffffffffffffffffffffffff1673ffffffffffffffffffffffffffffffffffffffff1673ffffffffffffffffffffffffffffffffffffffff168152602001600182015481526020016002820154815260200160038201548152602001600482015481526020016005820160009054906101000a900460ff1615151515815260200160068201548152602001600782015481526020016008820160009054906101000a900460ff1615151515815250509050919050565b60008282604051602001611613929190613348565b60405160208183030381529060405280519060200120905092915050565b60008060009054906101000a900473ffffffffffffffffffffffffffffffffffffffff16905090565b6000600654600360029054906101000a900473ffffffffffffffffffffffffffffffffffffffff1673ffffffffffffffffffffffffffffffffffffffff166370a08231306040518263ffffffff1660e01b81526004016116ba91906133c5565b60206040518083038186803b1580156116d257600080fd5b505afa1580156116e6573d6000803e3d6000fd5b505050506040513d601f19601f8201168201806040525081019061170a9190612e1f565b6117149190613836565b905090565b60006001600084815260200190815260200160002060000160008373ffffffffffffffffffffffffffffffffffffffff1673ffffffffffffffffffffffffffffffffffffffff16815260200190815260200160002060009054906101000a900460ff16905092915050565b61178c612a84565b60056000838152602001908152602001600020604051806101400160405290816000820160009054906101000a900460ff161515151581526020016000820160019054906101000a900473ffffffffffffffffffffffffffffffffffffffff1673ffffffffffffffffffffffffffffffffffffffff1673ffffffffffffffffffffffffffffffffffffffff168152602001600182015481526020016002820154815260200160038201548152602001600482015481526020016005820160009054906101000a900460ff1615151515815260200160068201548152602001600782015481526020016008820160009054906101000a900460ff1615151515815250509050919050565b6000801b81565b6118c67fd10feaa7fea55567e367a112bc53907318a50949442dfc0570945570c5af57cf33611719565b611905576040517f08c379a00000000000000000000000000000000000000000000000000000000081526004016118fc90613481565b60405180910390fd5b80600115156005600083815260200190815260200160002060000160009054906101000a900460ff1615151461193a57600080fd5b600015156005600083815260200190815260200160002060080160009054906101000a900460ff1615151461196e57600080fd5b6000600560008481526020019081526020016000209050600115158160050160009054906101000a900460ff161515146119dd576040517f08c379a00000000000000000000000000000000000000000000000000000000081526004016119d490613521565b60405180910390fd5b6000611ad782604051806101400160405290816000820160009054906101000a900460ff161515151581526020016000820160019054906101000a900473ffffffffffffffffffffffffffffffffffffffff1673ffffffffffffffffffffffffffffffffffffffff1673ffffffffffffffffffffffffffffffffffffffff168152602001600182015481526020016002820154815260200160038201548152602001600482015481526020016005820160009054906101000a900460ff1615151515815260200160068201548152602001600782015481526020016008820160009054906101000a900460ff161515151581525050612343565b90506000811115611aed57611aec8482611077565b5b600082600701548360060154611b039190613836565b905080600654611b139190613836565b60068190555060018360080160006101000a81548160ff0219169083151502179055505050505050565b611b4682610c96565b611b5781611b52612000565b612008565b611b618383612185565b505050565b7fd10feaa7fea55567e367a112bc53907318a50949442dfc0570945570c5af57cf81565b600081600115156005600083815260200190815260200160002060000160009054906101000a900460ff16151514611bc157600080fd5b600015156005600083815260200190815260200160002060080160009054906101000a900460ff16151514611bf557600080fd5b6000600560008581526020019081526020016000209050611d0481604051806101400160405290816000820160009054906101000a900460ff161515151581526020016000820160019054906101000a900473ffffffffffffffffffffffffffffffffffffffff1673ffffffffffffffffffffffffffffffffffffffff1673ffffffffffffffffffffffffffffffffffffffff168152602001600182015481526020016002820154815260200160038201548152602001600482015481526020016005820160009054906101000a900460ff1615151515815260200160068201548152602001600782015481526020016008820160009054906101000a900460ff161515151581525050612343565b92505050919050565b611d15612000565b73ffffffffffffffffffffffffffffffffffffffff16611d33611631565b73ffffffffffffffffffffffffffffffffffffffff1614611d89576040517f08c379a0000000000000000000000000000000000000000000000000000000008152600401611d8090613561565b60405180910390fd5b600073ffffffffffffffffffffffffffffffffffffffff168173ffffffffffffffffffffffffffffffffffffffff161415611df9576040517f08c379a0000000000000000000000000000000000000000000000000000000008152600401611df0906134a1565b60405180910390fd5b611e0281612433565b50565b611e0d612a84565b611e1f611e1a84846115fe565b611784565b905092915050565b6000611e7282600760008573ffffffffffffffffffffffffffffffffffffffff1673ffffffffffffffffffffffffffffffffffffffff168152602001908152602001600020546115fe565b9050919050565b6000611e83610792565b8210611ec4576040517f08c379a0000000000000000000000000000000000000000000000000000000008152600401611ebb906135a1565b60405180910390fd5b60048281548110611efe577f4e487b7100000000000000000000000000000000000000000000000000000000600052603260045260246000fd5b90600052602060002001549050919050565b60007f01ffc9a7000000000000000000000000000000000000000000000000000000007bffffffffffffffffffffffffffffffffffffffffffffffffffffffff1916827bffffffffffffffffffffffffffffffffffffffffffffffffffffffff1916149050919050565b611ffb8363a9059cbb60e01b8484604051602401611f999291906133e0565b604051602081830303815290604052907bffffffffffffffffffffffffffffffffffffffffffffffffffffffff19166020820180517bffffffffffffffffffffffffffffffffffffffffffffffffffffffff83818316178352505050506124f7565b505050565b600033905090565b6120128282611719565b6120a1576120378173ffffffffffffffffffffffffffffffffffffffff1660146125be565b6120458360001c60206125be565b60405160200161205692919061338b565b6040516020818303038152906040526040517f08c379a0000000000000000000000000000000000000000000000000000000008152600401612098919061343f565b60405180910390fd5b5050565b6120af8282611719565b61218157600180600084815260200190815260200160002060000160008373ffffffffffffffffffffffffffffffffffffffff1673ffffffffffffffffffffffffffffffffffffffff16815260200190815260200160002060006101000a81548160ff021916908315150217905550612126612000565b73ffffffffffffffffffffffffffffffffffffffff168173ffffffffffffffffffffffffffffffffffffffff16837f2f8788117e7eff1d82e926ec794901d17c78024a50270940304540a733656f0d60405160405180910390a45b5050565b61218f8282611719565b156122635760006001600084815260200190815260200160002060000160008373ffffffffffffffffffffffffffffffffffffffff1673ffffffffffffffffffffffffffffffffffffffff16815260200190815260200160002060006101000a81548160ff021916908315150217905550612208612000565b73ffffffffffffffffffffffffffffffffffffffff168173ffffffffffffffffffffffffffffffffffffffff16837ff6391f5c32d9c69d2a47ea670b442974b53935d1edc7fd64eb21e047a839171b60405160405180910390a45b5050565b6000612272306128b8565b15905090565b600360019054906101000a900460ff166122c7576040517f08c379a00000000000000000000000000000000000000000000000000000000081526004016122be90613641565b60405180910390fd5b81600360026101000a81548173ffffffffffffffffffffffffffffffffffffffff021916908373ffffffffffffffffffffffffffffffffffffffff1602179055506123156000801b826128db565b61233f7fd10feaa7fea55567e367a112bc53907318a50949442dfc0570945570c5af57cf826128db565b5050565b60008061234e6128e9565b9050826040015181108061236b5750600115158361012001511515145b1561237a57600091505061242e565b8260800151836060015161238e9190613755565b81106123b1578261010001518360e001516123a99190613836565b91505061242e565b60008360600151826123c39190613836565b905060008460a001519050600081836123dc91906137ab565b9050600082826123ec91906137dc565b905060008760800151828960e0015161240591906137dc565b61240f91906137ab565b9050876101000151816124229190613836565b90508096505050505050505b919050565b60008060009054906101000a900473ffffffffffffffffffffffffffffffffffffffff169050816000806101000a81548173ffffffffffffffffffffffffffffffffffffffff021916908373ffffffffffffffffffffffffffffffffffffffff1602179055508173ffffffffffffffffffffffffffffffffffffffff168173ffffffffffffffffffffffffffffffffffffffff167f8be0079c531659141344cd1fd0a4f28419497f9722a3daafe3b4186f6b6457e060405160405180910390a35050565b6000612559826040518060400160405280602081526020017f5361666545524332303a206c6f772d6c6576656c2063616c6c206661696c65648152508573ffffffffffffffffffffffffffffffffffffffff166128f19092919063ffffffff16565b90506000815111156125b957808060200190518101906125799190612cda565b6125b8576040517f08c379a00000000000000000000000000000000000000000000000000000000081526004016125af90613661565b60405180910390fd5b5b505050565b6060600060028360026125d191906137dc565b6125db9190613755565b67ffffffffffffffff81111561261a577f4e487b7100000000000000000000000000000000000000000000000000000000600052604160045260246000fd5b6040519080825280601f01601f19166020018201604052801561264c5781602001600182028036833780820191505090505b5090507f3000000000000000000000000000000000000000000000000000000000000000816000815181106126aa577f4e487b7100000000000000000000000000000000000000000000000000000000600052603260045260246000fd5b60200101907effffffffffffffffffffffffffffffffffffffffffffffffffffffffffffff1916908160001a9053507f780000000000000000000000000000000000000000000000000000000000000081600181518110612734577f4e487b7100000000000000000000000000000000000000000000000000000000600052603260045260246000fd5b60200101907effffffffffffffffffffffffffffffffffffffffffffffffffffffffffffff1916908160001a9053506000600184600261277491906137dc565b61277e9190613755565b90505b600181111561286a577f3031323334353637383961626364656600000000000000000000000000000000600f8616601081106127e6577f4e487b7100000000000000000000000000000000000000000000000000000000600052603260045260246000fd5b1a60f81b828281518110612823577f4e487b7100000000000000000000000000000000000000000000000000000000600052603260045260246000fd5b60200101907effffffffffffffffffffffffffffffffffffffffffffffffffffffffffffff1916908160001a905350600485901c9450806128639061391b565b9050612781565b50600084146128ae576040517f08c379a00000000000000000000000000000000000000000000000000000000081526004016128a590613461565b60405180910390fd5b8091505092915050565b6000808273ffffffffffffffffffffffffffffffffffffffff163b119050919050565b6128e582826120a5565b5050565b600042905090565b60606129008484600085612909565b90509392505050565b60608247101561294e576040517f08c379a000000000000000000000000000000000000000000000000000000000815260040161294590613501565b60405180910390fd5b612957856128b8565b612996576040517f08c379a000000000000000000000000000000000000000000000000000000000815260040161298d906135e1565b60405180910390fd5b6000808673ffffffffffffffffffffffffffffffffffffffff1685876040516129bf9190613374565b60006040518083038185875af1925050503d80600081146129fc576040519150601f19603f3d011682016040523d82523d6000602084013e612a01565b606091505b5091509150612a11828286612a1d565b92505050949350505050565b60608315612a2d57829050612a7d565b600083511115612a405782518084602001fd5b816040517f08c379a0000000000000000000000000000000000000000000000000000000008152600401612a74919061343f565b60405180910390fd5b9392505050565b604051806101400160405280600015158152602001600073ffffffffffffffffffffffffffffffffffffffff1681526020016000815260200160008152602001600081526020016000815260200160001515815260200160008152602001600081526020016000151581525090565b600081359050612b0281613fd5565b92915050565b600081359050612b1781613fec565b92915050565b600081519050612b2c81613fec565b92915050565b600081359050612b4181614003565b92915050565b600081519050612b5681614003565b92915050565b600081359050612b6b8161401a565b92915050565b600081359050612b8081614031565b92915050565b600081519050612b9581614031565b92915050565b600060208284031215612bad57600080fd5b6000612bbb84828501612af3565b91505092915050565b60008060408385031215612bd757600080fd5b6000612be585828601612af3565b9250506020612bf685828601612af3565b9150509250929050565b60008060408385031215612c1357600080fd5b6000612c2185828601612af3565b9250506020612c3285828601612b71565b9150509250929050565b600080600080600080600060e0888a031215612c5757600080fd5b6000612c658a828b01612af3565b9750506020612c768a828b01612b71565b9650506040612c878a828b01612b71565b9550506060612c988a828b01612b71565b9450506080612ca98a828b01612b71565b93505060a0612cba8a828b01612b08565b92505060c0612ccb8a828b01612b71565b91505092959891949750929550565b600060208284031215612cec57600080fd5b6000612cfa84828501612b1d565b91505092915050565b600060208284031215612d1557600080fd5b6000612d2384828501612b32565b91505092915050565b600060208284031215612d3e57600080fd5b6000612d4c84828501612b47565b91505092915050565b60008060408385031215612d6857600080fd5b6000612d7685828601612b32565b9250506020612d8785828601612af3565b9150509250929050565b60008060408385031215612da457600080fd5b6000612db285828601612b32565b9250506020612dc385828601612b71565b9150509250929050565b600060208284031215612ddf57600080fd5b6000612ded84828501612b5c565b91505092915050565b600060208284031215612e0857600080fd5b6000612e1684828501612b71565b91505092915050565b600060208284031215612e3157600080fd5b6000612e3f84828501612b86565b91505092915050565b612e518161386a565b82525050565b612e608161386a565b82525050565b612e77612e728261386a565b613945565b82525050565b612e868161387c565b82525050565b612e958161387c565b82525050565b612ea481613888565b82525050565b6000612eb582613718565b612ebf818561372e565b9350612ecf8185602086016138e8565b80840191505092915050565b6000612ee682613723565b612ef08185613739565b9350612f008185602086016138e8565b612f09816139d1565b840191505092915050565b6000612f1f82613723565b612f29818561374a565b9350612f398185602086016138e8565b80840191505092915050565b6000612f52602083613739565b9150612f5d826139ef565b602082019050919050565b6000612f75601783613739565b9150612f8082613a18565b602082019050919050565b6000612f98602683613739565b9150612fa382613a41565b604082019050919050565b6000612fbb602d83613739565b9150612fc682613a90565b604082019050919050565b6000612fde603d83613739565b9150612fe982613adf565b604082019050919050565b6000613001602683613739565b915061300c82613b2e565b604082019050919050565b6000613024602683613739565b915061302f82613b7d565b604082019050919050565b6000613047602e83613739565b915061305282613bcc565b604082019050919050565b600061306a602083613739565b915061307582613c1b565b602082019050919050565b600061308d602083613739565b915061309882613c44565b602082019050919050565b60006130b0602183613739565b91506130bb82613c6d565b604082019050919050565b60006130d3602283613739565b91506130de82613cbc565b604082019050919050565b60006130f6601d83613739565b915061310182613d0b565b602082019050919050565b6000613119602b83613739565b915061312482613d34565b604082019050919050565b600061313c604483613739565b915061314782613d83565b606082019050919050565b600061315f602b83613739565b915061316a82613df8565b604082019050919050565b600061318260178361374a565b915061318d82613e47565b601782019050919050565b60006131a5602a83613739565b91506131b082613e70565b604082019050919050565b60006131c8604a83613739565b91506131d382613ebf565b606082019050919050565b60006131eb601f83613739565b91506131f682613f34565b602082019050919050565b600061320e60118361374a565b915061321982613f5d565b601182019050919050565b6000613231602f83613739565b915061323c82613f86565b604082019050919050565b6101408201600082015161325e6000850182612e7d565b5060208201516132716020850182612e48565b5060408201516132846040850182613313565b5060608201516132976060850182613313565b5060808201516132aa6080850182613313565b5060a08201516132bd60a0850182613313565b5060c08201516132d060c0850182612e7d565b5060e08201516132e360e0850182613313565b506101008201516132f8610100850182613313565b5061012082015161330d610120850182612e7d565b50505050565b61331c816138de565b82525050565b61332b816138de565b82525050565b61334261333d826138de565b613969565b82525050565b60006133548285612e66565b6014820191506133648284613331565b6020820191508190509392505050565b60006133808284612eaa565b915081905092915050565b600061339682613175565b91506133a28285612f14565b91506133ad82613201565b91506133b98284612f14565b91508190509392505050565b60006020820190506133da6000830184612e57565b92915050565b60006040820190506133f56000830185612e57565b6134026020830184613322565b9392505050565b600060208201905061341e6000830184612e8c565b92915050565b60006020820190506134396000830184612e9b565b92915050565b600060208201905081810360008301526134598184612edb565b905092915050565b6000602082019050818103600083015261347a81612f45565b9050919050565b6000602082019050818103600083015261349a81612f68565b9050919050565b600060208201905081810360008301526134ba81612f8b565b9050919050565b600060208201905081810360008301526134da81612fae565b9050919050565b600060208201905081810360008301526134fa81612fd1565b9050919050565b6000602082019050818103600083015261351a81612ff4565b9050919050565b6000602082019050818103600083015261353a81613017565b9050919050565b6000602082019050818103600083015261355a8161303a565b9050919050565b6000602082019050818103600083015261357a8161305d565b9050919050565b6000602082019050818103600083015261359a81613080565b9050919050565b600060208201905081810360008301526135ba816130a3565b9050919050565b600060208201905081810360008301526135da816130c6565b9050919050565b600060208201905081810360008301526135fa816130e9565b9050919050565b6000602082019050818103600083015261361a8161310c565b9050919050565b6000602082019050818103600083015261363a8161312f565b9050919050565b6000602082019050818103600083015261365a81613152565b9050919050565b6000602082019050818103600083015261367a81613198565b9050919050565b6000602082019050818103600083015261369a816131bb565b9050919050565b600060208201905081810360008301526136ba816131de565b9050919050565b600060208201905081810360008301526136da81613224565b9050919050565b6000610140820190506136f76000830184613247565b92915050565b60006020820190506137126000830184613322565b92915050565b600081519050919050565b600081519050919050565b600081905092915050565b600082825260208201905092915050565b600081905092915050565b6000613760826138de565b915061376b836138de565b9250827fffffffffffffffffffffffffffffffffffffffffffffffffffffffffffffffff038211156137a05761379f613973565b5b828201905092915050565b60006137b6826138de565b91506137c1836138de565b9250826137d1576137d06139a2565b5b828204905092915050565b60006137e7826138de565b91506137f2836138de565b9250817fffffffffffffffffffffffffffffffffffffffffffffffffffffffffffffffff048311821515161561382b5761382a613973565b5b828202905092915050565b6000613841826138de565b915061384c836138de565b92508282101561385f5761385e613973565b5b828203905092915050565b6000613875826138be565b9050919050565b60008115159050919050565b6000819050919050565b60007fffffffff0000000000000000000000000000000000000000000000000000000082169050919050565b600073ffffffffffffffffffffffffffffffffffffffff82169050919050565b6000819050919050565b60005b838110156139065780820151818401526020810190506138eb565b83811115613915576000848401525b50505050565b6000613926826138de565b9150600082141561393a57613939613973565b5b600182039050919050565b600061395082613957565b9050919050565b6000613962826139e2565b9050919050565b6000819050919050565b7f4e487b7100000000000000000000000000000000000000000000000000000000600052601160045260246000fd5b7f4e487b7100000000000000000000000000000000000000000000000000000000600052601260045260246000fd5b6000601f19601f8301169050919050565b60008160601b9050919050565b7f537472696e67733a20686578206c656e67746820696e73756666696369656e74600082015250565b7f43616c6c6572206973206e6f742061204772616e746f72000000000000000000600082015250565b7f4f776e61626c653a206e6577206f776e657220697320746865207a65726f206160008201527f6464726573730000000000000000000000000000000000000000000000000000602082015250565b7f546f6b656e56657374696e673a20736c696365506572696f645365636f6e647360008201527f206d757374206265203e3d203100000000000000000000000000000000000000602082015250565b7f546f6b656e56657374696e673a2063616e6e6f742072656c6561736520746f6b60008201527f656e732c206e6f7420656e6f7567682076657374656420746f6b656e73000000602082015250565b7f416464726573733a20696e73756666696369656e742062616c616e636520666f60008201527f722063616c6c0000000000000000000000000000000000000000000000000000602082015250565b7f546f6b656e56657374696e673a2076657374696e67206973206e6f742072657660008201527f6f6361626c650000000000000000000000000000000000000000000000000000602082015250565b7f496e697469616c697a61626c653a20636f6e747261637420697320616c72656160008201527f647920696e697469616c697a6564000000000000000000000000000000000000602082015250565b7f4f776e61626c653a2063616c6c6572206973206e6f7420746865206f776e6572600082015250565b7f546f6b656e56657374696e673a20616d6f756e74206d757374206265203e2030600082015250565b7f546f6b656e56657374696e673a20696e646578206f7574206f6620626f756e6460008201527f7300000000000000000000000000000000000000000000000000000000000000602082015250565b7f546f6b656e56657374696e673a206475726174696f6e206d757374206265203e60008201527f2030000000000000000000000000000000000000000000000000000000000000602082015250565b7f416464726573733a2063616c6c20746f206e6f6e2d636f6e7472616374000000600082015250565b7f546f6b656e56657374696e673a206e6f7420656e6f756768207769746864726160008201527f7761626c652066756e6473000000000000000000000000000000000000000000602082015250565b7f546f6b656e56657374696e673a206f6e6c792062656e6566696369617279206160008201527f6e64206772616e746f722063616e2072656c656173652076657374656420746f60208201527f6b656e7300000000000000000000000000000000000000000000000000000000604082015250565b7f496e697469616c697a61626c653a20636f6e7472616374206973206e6f74206960008201527f6e697469616c697a696e67000000000000000000000000000000000000000000602082015250565b7f416363657373436f6e74726f6c3a206163636f756e7420000000000000000000600082015250565b7f5361666545524332303a204552433230206f7065726174696f6e20646964206e60008201527f6f74207375636365656400000000000000000000000000000000000000000000602082015250565b7f546f6b656e56657374696e673a2063616e6e6f7420637265617465207665737460008201527f696e67207363686564756c652062656361757365206e6f74207375666669636960208201527f656e7420746f6b656e7300000000000000000000000000000000000000000000604082015250565b7f5265656e7472616e637947756172643a207265656e7472616e742063616c6c00600082015250565b7f206973206d697373696e6720726f6c6520000000000000000000000000000000600082015250565b7f416363657373436f6e74726f6c3a2063616e206f6e6c792072656e6f756e636560008201527f20726f6c657320666f722073656c660000000000000000000000000000000000602082015250565b613fde8161386a565b8114613fe957600080fd5b50565b613ff58161387c565b811461400057600080fd5b50565b61400c81613888565b811461401757600080fd5b50565b61402381613892565b811461402e57600080fd5b50565b61403a816138de565b811461404557600080fd5b5056fea2646970667358221220d3bdd7228d61dc88abb7adcdc2949d495b75dd7957faa5eabd21bf0f0963c08964736f6c63430008020033",
  "linkReferences": {},
  "deployedLinkReferences": {}
}